:020000040032C8
:20000000761BFFF00005ABBDA8BDA0BDC2BDC3BDE20000BDE20300BDE20301BDE20302BDAA
:20001000E20303BDE6300600FE02FF69294256160201761F0300560100329206ED0BE590A7
:20002000761F0304E20300000200761F03001E326F175201ED11921C5201ED07E590761F7F
:200030000304E20300006F0C761F03020604761F03041E006F050630761F03041E00761FF2
:200040000304E2AF000AE2AF0100E7200008E801BFF9E203000EE80ED201E6950000E6940B
:200050000008AD1456C4003602015601000806020F0856C60034E2AF000AE2AF0100E694FF
:200060000001AD1456C4000EE801BFF8E2AF010AE80ED200E71000407700E203000A6F0C7A
:20007000E801BFF8E2AF010AE80ED200E72000087700E203000AE2AF0206E2AF01040200C6
:20008000E6970010E6960008E203000A1E086F0628A9FFFF28A87FFF1E0C060A761F0302D4
:200090001E18E2AF001AE2AF0118E7000009E2AF001CE71000407700E203001CE811FC0084
:2000A000AD1456C50008E8AFE0007700E203001C6F0BE815FC00AD1456C30007E88FE000C2
:2000B0007700E203001C061C1E20761F03009206ED22E590761F0305E20300240200761F67
:2000C00001AC1E001A1A04008F0026BB761F0305A832761F0300020156010036761F030175
:2000D0000600761F03000F3656C7000602001E3656BF010692065201ED17761F01ACCC1982
:2000E0000400FFC95201ED100608761F0300960F56BF02062B0AE2AF002EE850E580761F56
:2000F0000302E203001A761F0300920656C100E3021C761F030107068AA9CCC40020FFC458
:200100008A06761F03059628063207C41E2C062C56C3000606E45601002C6F0806E40F2C4D
:2001100056C7000506E45641002CE288012CE2AF002EE70000087700E2030026E2C4003162
:20012000E2AF0126E700000876738C06761F03050219E2AF0226E2C40131761F0301E700D4
:20013000005107068AA9E7200008761F0305E2030024CCC40400FFC95201ED150208761F19
:2001400003010706761F03058AA956BFF034761F0301021AC4C407068AA9761F0305C22A7F
:200150001AC404000219761F030107068AA9CCC40800FFCA5201ED21021C07068AA943C492
:20016000EE06021C07068AA942C4EF07021C07068AA956BF0CC46F110220070683A988C5C6
:200170008F00FFFFA8A90FA6EC08022007068AA9761F030592C49629761F03050624761F78
:2001800003061E14761F01ACCC1C0020FFC4761F03060EA91E16E801FB309B00E2AF011439
:20019000E80B3330E6940001AD1456C300039B01E801EE609A00E80E6668E6940001AD1434
:2001A00056C500039A01CEA8EC0DE2AF0018E7200009E2AF001EE70000087700E20300263E
:2001B0006F03061A1E26E2AF0020E2AF011AE2AF0222E3004326E70000997700E7100040CD
:2001C0007700E2030026E831FC00E825FC00E203002606261E1A06141E18E284001CE2AFAD
:2001D000011AE70000087700E68800007700E2030024761F002CE801CBF8E2C40101E80F94
:2001E000FEA8761F0300E7000041E2AF003AE7200009E801FB40E8500009E80DA1C8E70014
:2001F0000040761F0301E203002C761F002CE801CBF8E2C40102E80FFEA8761F0300E700D3
:200200000041E2AF0038E7200009E801FB40E8500009E80DA1C8E7000040761F0301E2035C
:20021000002E062CE801F8981E32E2AF012EE850000AE2AF012CE7100089E80E69D0E7004F
:2002200000407700E20300340632761F03021E24761F03010634761F03021E26761F030091
:200230009206ED06E590761F0302E20300285201ED06761F030206201E286F07761F0305A8
:200240000624761F03021E28E8020648E2AF0128E8087ED8E70000407673A9F9761F030210
:20025000E203002EE8020648E2AF0128E8087ED8E70000407673A939761F0302E2030030A2
:20026000E2AF0130E2AF0226E2AF0024E300432EE70000997700E71000407700E203002A46
:20027000E2AF0226E2AF0024E2AF012EE3004330E70000997700E72000087700E203002C5C
:20028000761F030088160E150FA6ED4B761F0304060A761F03081E18761F0306061A761F43
:2002900003081E1AE2AF001AE2AF0118E72000087700E2030026E2AF011CE2AF002AE69442
:2002A0000001AD14ED0CE2AF0020E2AF0126E7000008E2AF012CE71000406F03E2AF002C07
:2002B000E203002806281E2CE2AF0128E2AF0026E7100009E2AF001EE70000087700E2033E
:2002C000002AE2AF0222E2AF0124E6970010E6960008E203001C761F030056BF01166F0242
:2002D0000A169206EC035201ED08E590761F0308E2030028E203002C5200ED07E590761F9C
:2002E0000308E20300006F175201ED08761F03020604761F03081E006F0E5201ED08761F84
:2002F00003020604761F03081E006F05761F0308061C1E00761F0302062C761F03081E0241
:20030000E2AF0002E2AF0100E72000087700E203000EE2AF0104E2AF0012E6940001AD14CA
:20031000ED0CE2AF0008E2AF010EE7000008E2AF0114E71000406F03E2AF0014E2030010C3
:2003200006101E14E2AF0110E2AF000EE7100009E2AF0006E70000087700E2030012E2AFAF
:20033000020AE2AF010CE6970010E6960008E2030004761F03009206ED08761F0302061034
:20034000761F03071E166F06E590761F0307E2030016761F0302062A761F03071E18E2AF16
:200350000018E2AF0116E72000087700E2030024E2AF011AE2AF0028E6940001AD14ED0CA4
:20036000E2AF001EE2AF0124E7000008E2AF012AE71000406F03E2AF002AE20300260626D2
:200370001E2AE2AF0126E2AF0024E7100009E2AF001CE70000087700E2030028E2AF0220E5
:20038000E2AF0122E6970010E6960008E203001A061A761F03031E14761F03080604761F6D
:2003900003031E16761F0302062E761F03031E18761F03020630761F03031E1AE2AF031A23
:2003A000E2AF0016E2AF0118E3004214E70000997700E72000087700E203000EE2AF02149C
:2003B000E2AF0016E2AF011AE3004318E70000997700E71000407700E2030010060E761F59
:2003C00003051E12761F03030610761F03051E14E801FAE81E1CE80D9168E2AF0212E2AF3C
:2003D0000114E84FC009E70000107700E71000407700E203001EE2AF001CE2AF011EE72075
:2003E00000087700E203002056BF0322E2AF001EE5A0AD1456C5000592229CFF6F029222B6
:2003F0009622E2AF0020E5A0AD1456C500039CFF9622E2AF001CE5A0AD1456C300049A071C
:200400009E2252019622EC035204ED13061E1E16E2AF0020E2AF011CE72000087700E203AA
:200410000018E2AF001EE6AF0000E203001A6F2A5202EC035205ED13E2AF0020E2AF011EDD
:20042000E71000407700E2030016061C1E18E2AF001CE6AF0000E203001A6F1406201E169D
:20043000E2AF0020E6AF0000E2030018E2AF011EE2AF001CE71000407700E6AF0000E203E4
:20044000001A0616761F03011E26761F03050618761F03011E28761F0305061A761F030199
:200450001E2AE2C40023E2AF0126E2C40223E70000080209E7100080761F0302E68E000079
:2004600007348AA9BFA60F12761F03017EC4E2C40023E2AF0128E2C40223E7000008020965
:20047000E7100080761F0302E68E000007368AA9BFA60F12761F03017EC4E2C40023E2AFBC
:20048000012AE2C40223E70000080209E7100080761F0302E68E000007388AA9BFA60F12EF
:200490007EC4761F0307E2AF0000E811F400AD1456C3001D761F0306E28800247700E695D8
:2004A0000000E8120500AD1456C3001128A9E1C09BE4761F00301E12767391F17622761FD4
:2004B00000358F0085B0A820761A761F01A01A1C0001761F003356BF0421FE82E2AF03BE9A
:2004C000E2AF02BEE2AF01BEE2AF00BEE28000BEC5BEC4BE83BE8ABE87BE0003FFF17617B9
:2004D0007602761BFFF0ABBDA8BDA0BDC2BDC3BDE20000BDE20300BDE20301BDE20302BD63
:2004E000E20303BDE20304BDE6300600FE02294256160201761F0300560100328F00138870
:2004F000A8A90F3256C60066761F002CE2C40401E801CBF8761F0300E2AF032AE2AF023A9D
:20050000E80FFEA8E307192CE7000051E70000C07700E71000407700E203003AE2AF023821
:20051000E801CBF8E2AF032AE2AF012C761F002CE2C40402E80FFEA8E70000E3E700005197
:20052000E70000C07700E7100040761F0300E2030038E2AF023EE801CBF8E2AF032AE2AFE5
:20053000012C761F002CE2C40403E80FFEA8E70000E3E7000051E70000C07700E71000401C
:20054000761F0300E203003E761F002CE801CBF8E801FB41E2C40207E80FFEA8E70000809B
:20055000E80DA1C9E7000008761F0307E2030000761F002CE801CBF8E801FB41E2C4020778
:20056000E80FFEA8E7000080E80DA1C9E7000008761F0307E20300008F004E20761F030010
:20057000A8A90F3256C70021761F0307E801F4C8E2AF0100E80CCCD0E6940001AD1456C5DE
:2005800000140200761F03001E3228A9870028A80393761F00301E1276228F008000761F6E
:200590000035A820761A761F01A01A1C0001761F003356BF0421FE82E2AF04BEE2AF03BE2A
:2005A000E2AF02BEE2AF01BEE2AF00BEE28000BEC5BEC4BE83BE8ABE87BEFFF17617760263
:2005B000761BFFF00005ABBDA8BDA0BDC2BDC3BDE20000BDE20300BDE20301BDE20302BDF5
:2005C000E20303BDE6300600FE02FF6929425616021C761F030107068AA9CCC40020FFC4B1
:2005D0008A06761F03059628063207C41E2C062C56C3000606E45601002C6F0806E40F2C79
:2005E00056C7000506E45641002CE288012CE2AF002EE70000087700E2030026E2C400318E
:2005F000E2AF0126E700000876738C06761F03050219E2AF0226E2C40131761F0301E70000
:20060000005107068AA9E7200008761F0305E2030024CCC40400FFC95201ED150208761F44
:2006100003010706761F03058AA956BFF034761F0301021AC4C407068AA9761F0305C22AAA
:200620001AC404000219761F030107068AA9CCC40800FFCA5201ED21021C07068AA943C4BD
:20063000EE06021C07068AA942C4EF07021C07068AA956BF0CC46F110220070683A988C5F1
:200640008F00FFFFA8A90FA6EC08022007068AA9761F030592C49629761F03050624761FA3
:2006500003061E14E801FB309B00E2AF0114E80B3330E6940001AD1456C300039B01E801C7
:20066000EE609A00E80E6668E6940001AD1456C500039A01CEA8EC0DE2AF0018E7200009B1
:20067000E2AF001EE70000087700E20300266F03061A1E26E2AF0020E2AF011AE2AF022262
:20068000E3004326E70000997700E71000407700E2030026E831FC00E825FC00E203002635
:2006900006261E1A06141E18E284001CE2AF011AE70000087700E68800007700E203002414
:2006A000761F03002B1CE590E2030022761F0304E2030000E2AF0100E2AF000AE720000822
:2006B000E801BFF9E203000EE80ED201E6950000E6940008AD1456C400360201560100085D
:2006C00006020F0856C60034E2AF000AE2AF0100E6940001AD1456C4000EE801BFF8E2AFE9
:2006D000010AE80ED200E71000407700E203000A6F0CE801BFF8E2AF010AE80ED200E72014
:2006E00000087700E203000AE2AF0206E2AF01040200E6970010E6960008E203000A1E0835
:2006F0006F0628A9FFFF28A87FFF1E0C761F002CE801CBF8E801FB41E2C40207E80FFEA850
:20070000E7000080E80DA1C9E7000008761F0307E2030000E801F4C8E2AF0100E80CCCD0D9
:20071000E6940001AD1456C5002A28A9870028A80393761F00301E12761F03002B060200CA
:200720001E36E590761F0308E2030028E203002C761F0307E2030026E203002A761F0308D9
:20073000E2030010E2030014767392357622761F00358F008000A820761A761F01A01A1CD6
:200740000001761F003356BF0421FE82E2AF03BEE2AF02BEE2AF01BEE2AF00BEE28000BEB4
:20075000C5BEC4BE83BE8ABE87BE0003FFF1761776027622761F002A1A000001CC06F0FF8B
:200760001AA905009606CC06FFF050059606CC07FFE0500896071A0401FF1A0501FF761AEF
:10077000F6077700FF690006190156C3FFFF000660
:020000040033C7
:208000006F121AC400106F0C1AC400016F091AC400026F061AC400086F031AC4000402018D
:20801000560100C5C4C592C6522B56C20009522BECEF5220ECF35223ECEE0006522DECE567
:208020005230ECE00006B2BDAABDA2BDFE0A8BA583C1825486A492C5522AEC235CADDC8AEA
:208030005CA4F6092B848AC192C4523056C400115DADDD8A5DA5523A56C3000BC4A4DC01CC
:20804000A8C192C6968592C4523056C3FFF6924AEC175CADDC8A5CA47673ABDB96CA6F10C2
:208050008AC3DC8192C4A8C3562A03CA56C30006FF5C1AC2000196CA0201560100C18AC13B
:2080600092C4522EED34020107C18AA91EC192C4522AEC255CADDC8A5CA4F6092B848AC1E1
:2080700092C4523056C400115DADDD8A5DA5523A56C3000BC4A4DC01A8C192C6968592C453
:20808000523056C3FFF6924AED032BD26F105CADDC8A5CA47673ABDB96D26F098AC3DC81A0
:2080900088C40201A8C37ED2560100C1FE8A82BE86BE8BBE0006AABD88DC92A6527056C177
:2080A00000A156338EA9CCC4076080A9522056C100815240EC5D5AA78F000100A8A90FA2C7
:2080B000EC3680A78F000200A8A90FA7EC1592A6526F56C2000C526FEC7D5258EC7B5264C0
:2080C000EC1D5269EC1BFFEF008A5275EC73527856C000856F6F92A6526F56C2000B526F17
:2080D000EC695258EC675264EC095269EC076F765275EC605278ED726F5D8AC53B01DC8110
:2080E00085C4A8C5568F568F8EA96F6892A6526F56C2000B526FEC0C5258EC0A5264EC0BD0
:2080F0005269EC096F5B5275EC035278ED5740C5EF046F0540C5EE0302036F020204A3C5EC
:208100000901564100ABA9A4A9C58ED46F4692A6526F56C2000B526FEC0C5258EC0A526416
:20811000EC0B5269EC096F3A5275EC035278ED3640C5EF296F2A40C5EE0302016F02020238
:208120001EA606C5DE0103A68AA91EC506C46FBB92A6526F56C2000B526FEC0C5258EC0AA9
:208130005264ECAC5269ECAA6F195275EC035278ED158AC5D0002BAADC81A8C527C46F0E60
:2081400040C5EE0302016F020202A3C50901564100ABA9A4D000A9C5A3C486BE3AA90006DE
:20815000FE048EA992A4A9A55208EC045210EC056F073AA956926F373AA956936F34768069
:20816000FFFFC2443AA92B422B4100F3AD24520056C2000A27A50EABBE002BAAF60F1FA427
:2081700027A96F20020019011E442B422B413AA900F3AD24520056C2000B3B0185A48AA985
:208180000200F61F561700A402006F0B3B0185A4568F568FA9441E42A0AB3AA97673A17394
:208190001EA606A6FE840006B2BDAABDA2BDE20304BDFE048EA959A586A4BDAB0F228DF382
:2081A000B4EC924F5258ED038DF3B4FE02001E442B422B413AA900F3AD245200ED088AC2FB
:2081B000A8A919011EC256BF30C46F233AA95CA1767381503B01BFA40F228EA9A9ACC4C24D
:2081C00085A1564400A9564100A483A6A2A9560100A4DD81B6005CC4A0C2BDAC0F223AA979
:2081D0007CC6C3442B422B4100F3AD245200EDDF8AC27673AEAEFE849CFFE2AF04BE82BE4A
:2081E00086BE8BBE0006B2BDAABDA2BDFE0482A4BDA50F128B4E835092D356C4000518C301
:2081F000FFEF6F0356BF01D392DB5258EC09526FEC095270EC05527856B00AA2ED04D21062
:208200006F02D2087673809B3B01A9A0A94483A9ABAB1E4285D3568F568F00F3ADF9BE0042
:20821000C2442B422B4100F3AD245200ED0343C3EF4C88DB92A65264EC035269ED0F565E7D
:20822000A0A93AAB565E56C3000ABFA40F12565883A956BF01C488DBA9A0A0A97E418AA122
:208230003AAB5DA2767381946F0783C18AA5DC81A8C156BF30C59C0154D356C5FFF892DB50
:208240005278EC055258EC035270ED1243C3EF108AC1C4A4527056B178A9DE81C2C196C42B
:208250008AC1A8A919011EC156BF30C492DB526FED0C43C3EF0A8AC192CC5230EC06A8A9DC
:2082600019011EC156BF30C4FE8482BE86BE8BBE0006B2BDAABDA2BDE20304BDFE125BA9B8
:2082700088ADC5D506C5A852865EDE868F73B5361E46C34456BF30C45CA67673AC3CE2AF4D
:2082800004527700BFA60F22DE01BDA60F227700770077005200E203045056C3000A5CADEC
:20829000DC8688A45CADDC865CA47673AE9D5CAD8F73B53ADC865CA47673AC3CD100520051
:2082A00056C500175CADDC8688A45CAD8F73B53EDC865CA47673A5D45CAD8F73B53ADC86D7
:2082B0005CA47673AC3CD901520056C2FFEDDB016F0F56BF30C46F6F5CADDC8688A45CADCC
:2082C0008F73B53EDC865CA47673A771D9815CAD8F73B536DC865CA47673AC3C5200EC0E77
:2082D0005CAD8F73B542DC865CA47673AC3C9B00520056B401A85300EDE05CADDC865CA42E
:2082E0007673ACD48A507673AC0E88A93B01065081A61E5092A694A196C292A354A656C531
:2082F000003192A674A3DB815CADDC865CA47673ACD45CADDC8E88A47673AD875CADDC8E8F
:208300005DA45CADDC8A88A45CADDC865CA47673AE415CAD88AD8F73B53EDC8ADE865CA481
:2083100088A67673A7715CADDC865CA47673ACB38A509B3095A99784A850000BFFD76F0520
:20832000065281A309011E508A50928C5235A85056C40011928C9C010AC4523A56C3FF8BEF
:2083300006520FA4ED078A50DC812BC40AC28A526F058350BFA40F222BC5FE92E2AF04BEB2
:2083400082BE86BE8BBE0006B2BDAABDA2BDFE02520059A95BA886A456C500053B0185A112
:208350006F04FF5C3B0185A9568F56BF6441D50A568F7673819492A35270EC115250EC0FE3
:2083600092A1520A56C3000F1BA1FFF656C500088AC2A8A919011EC256BF30C492A156C485
:2083700000049A2B6F029A2D8AC2C4A4DE81C2C296C48AC2FE82A8A919011EC27BC482BE65
:2083800086BE8BBE0006B2BDAABD8BA4A2BD5AA85BA9E20304BDBDA50F227673AEAE1EA79D
:20839000D40093A3BFA50F2256C5000B92A754A356C40007B2A93B0181A319018AA993A27A
:2083A000EC07C4C506A619011EC556BF2EC693A392A754A856C3001193A775A3DB8188A321
:2083B000B50900A68EC5C5A0DF81C3C556BF30C0770077007700530056C50016B2A90FA4AD
:2083C00056C60018A8A903A11EA6DC01C5C5DE8106A719011EC5278C020019013FC70FA6B6
:2083D000EDF66F078AC5A8A919011EC556BF30C4E2AF04BE82BE86BE8BBE0006B2BDAABD92
:2083E000A2BDE20304BD5AADDA8CFE6CC4D48BA506C41E48C24682C292D1EC08520056C39B
:2083F000000956BF06D19A066F0456BF01D19A015CAD5DADDC8388A45CADDD885DA5C242D1
:20840000DCEC5CA4767382699A009343BDA40F221BA8FFFD56C4001093D1554356C3001AA6
:208410009343530256C400089DFF9C019743530256C3FFFC530056C200089D019CFF9743FD
:20842000530056C5FFFC93D98AA39DFE76738344BFA40F227673AEAE9CFFB6005CA9544329
:2084300056C4001E3B01520056C4000ABFA90F2281A483A993C55330EC036F069B3092A715
:20844000ED0343C1EF07C4C383A6B601DD81A0C397C6DC8192A4544356C3FFE792C19B0096
:208450009008CAA7520056B001A89243BFA40F2283A376738383FEECE2AF04BE82BE86BEC3
:208460008BBE0006B2BDAABDA2BDE20304BDFE1259A988ADC5D506C5A852825EDE868F73E6
:20847000B5361E46C34456BF30C45CA67673AC3CE2AF04527700BFA60F22DE01BDA60F2253
:208480007700770077005200794FBFA10F2256C3000A5CADDC8688A45CADDC865CA47673BE
:20849000AE9D5CAD8F73B53ADC865CA47673AC3CD200520056C500175CADDC8688A45CAD5E
:2084A0008F73B53EDC865CA47673A5D45CAD8F73B53ADC865CA47673AC3CDA01520056C291
:2084B000FFED0A4F6F0F56BF30C46F675CADDC8688A45CAD8F73B53EDC865CA47673A77112
:2084C000DA815CAD8F73B536DC865CA47673AC3C5200EC0E5CAD8F73B542DC865CA476737F
:2084D000AC3C9B00520056B401A85300EDE05CADDC865CA47673ACD48AA17673AC0E88A911
:2084E0003B01B2A981A68BA993A6924F95A297C394A2964F56C5002D5A4FDA815CADDC860D
:2084F0005CA47673ACD45CADDC8E88A47673AD875CADDC8E5DA45CADDC8A88A45CADDC86CD
:208500005CA47673AE415CAD88AD8F73B53EDC8ADE865CA488A67673A7715CADDC865CA4EC
:208510007673ACB39B3095A99781000AFFD99289523556C400108AA1928C9C010AC4523AF4
:2085200056C3FF9306520FA4ED052BC18A520AC36F04BFA40F222BC1FE92E2AF04BE82BEE8
:2085300086BE8BBE0006B2BDAABD59A8A2BD5AA95BA8E20304BDE20305BDBDA50F26BDA417
:208540000F227673AEAEDB8193A127A995A29DFFBFA50F265CA893A356C4001B88A33B0103
:2085500093A456C4000692AB54A456C2000528AA00306F06BFA90F2281A41EA72FC7C5C5E8
:20856000DC8106A719011EC557C7000EFFEBE2AF05BEE2AF04BE82BE86BE8BBE0006B2BDF5
:20857000AABDA2BDE20304BD5AADDA8C08AD0208C4D48BA506C41E48C24682C25CAD92D1A3
:2085800056B406D1C4C3D00CDC83C29288A45CAD5DAD56B406A908A4FDFADD885DA55CA4E2
:20859000C242767384629243BDA40F2293D183A376738533D00CBE0106920FC3ED0443C16C
:2085A00056BC00A69243BFA40F2283A393A67673838308ADFDF8E2AF04BE82BE86BE8BBE82
:2085B0000006B2BDAABDA2BDE20304BDE20305BD5AADDA8EFE6E8BA5C4D4D00F06C41E4871
:2085C000C24692D19692E2AF05C256C30007D00F56BF06D1289200065CAD8F73B546DC889B
:2085D0005CA47673AC3CD300520056C300475CAD8F73B54ADC885CA47673AC3C520056C589
:2085E00000165CAD8F73B536DC885CA47673AC3C5200EC4F5CAD8F73B542DC885CA476735E
:2085F000AC3C520056C4000A6F1D9A009B002BAB28AAFFF01E48A9465CADDC8888A45CADBE
:208600008F73B53EDC885CA47673A7715CAD8F73B542DC885CA47673AC3CDB81520056C401
:20861000FFED5CAD8F73B53EDC885CA47673AC3C520056C3000A6F1D9A009B002BAB28AA4D
:208620007FF01E48A9465CADDC8888A45CAD8F73B53EDC885CA47673A5D45CAD8F73B53E1B
:20863000DC885CA47673AC3CDB01520056C3FFED5CAD5DADDC830EA4DD885CADD00F1E42F1
:208640005DA5DCEC92925CA4767384629243BDA40F225202ED0B0B437673AEAEBFA40F2283
:20865000560100A4DB01DC812BC493D992A3BFA40F267673834493D19243BFA40F22BFA5CD
:208660000F2676738533D301BFA40F227673AEAE5443ED0443C156BC00A39243BFA40F22CD
:20867000BFA50F2693A376738383FEEEE2AF05BEE2AF04BE82BE86BE8BBE00065200B2BD05
:20868000EC048D73B4FE6F038D73B4EC92C48AA17673AE69A8A99EA18BBE0006B2BD520005
:208690008BA4AABDEC048DB3B4FE6F038DB3B4EC92C18AA27673AE6992A49EA29C0188A93D
:2086A000521056C30009AAA93B0181A68AA992C496C16F0356BF30C186BE92A68BBE00065D
:2086B000B2BDAABDA2BDE20304BDE20305BDFE12C4A4964EA3C5C5D59A008D73B4ECDE01B1
:2086C0008260BDA60F221B4EFFFFA94856B101A9964DE20304529A00C346534156B101A915
:2086D0005200964FEC038D73B4FE88AD56BF30C48F73B536DE885CA67673AC3C520056C3E3
:2086E000000A5CADDC8888A45CADDC885CA47673AE9D5CAD8F73B536DC885CA47673AC3C0B
:2086F0005200EC185CADDC885CA47673AC905CADBFA20F12DC835CA47673AE099A019E437C
:20870000BDA20F127673AB735CADDC8888A47673AD6B5CADDC885CA47673ACD48A52BDA920
:208710000F267673AC0E5CAD5AA93B010652DC8C81A288A41E52BFA90F267673AD875CADE7
:20872000DC8C5DA45CADDC8888A45CADDC885CA47673AE417AC3924DED4E0A4EEC2E5A4E81
:20873000DA815CADDC8888A45CAD8F73B54EDC885CA47673A7715CADDC885CA47673ACB30D
:2087400080A93B01B2A981A78AA95DAD92C48A52DD8C88A59684A85292A77673AD4E5CADF2
:20875000DC8C5DA45CADDC8888A45CADDC885CA47673AE41000AFFD7065219011E528A5224
:20876000924F7673867E520856C400518A52924FDC817673868E8B525210D98156C4004755
:208770002BC1924FD9818AA17673868E521056C3FFF96F3C5CAD8F73B536DC885CA4767339
:20878000AC3C5200EC335CADDC8888A45CAD8F73B54EDC885CA47673A7715CADDC885CA407
:208790007673ACB380A93B01B2A981A78AA95DAD92C48A52DD8C88A59684A85292A776735E
:2087A000AD4E5CADDC8C5DA45CADDC8888A45CADDC885CA47673AE415CAD8F73B536DC8814
:2087B0005CA47673AC3C5200EDCF8352BFA40F22FE922BC5E2AF05BEE2AF04BE82BE86BEB6
:2087C0008BBE0006B2BDAABDA2BDE20304BD5AADDA8CFE6C8BA588AD06C4C5D48F73B546D3
:2087D0002B43DE881E485CA682C2C3467673AC3C520056C300195CAD8F73B54ADC885CA43D
:2087E0007673AC3C520056C5000C5CAD8F73B536DC885CA47673AC3C5200ED0C6F1628AA62
:2087F000FFF06F0328AA7FF09A009B002BAB1E48A9465CADDC885CA47673AC905CADDC836D
:208800005CA47673AE090B435CAD5DADDC840EA4DD885CAD1E425DA592D193D9DCEC5CA4DE
:20881000767386B092D9BDA40F225241EC039B706F029B5092438AA37673834493D11BA86A
:20882000FFFFED08BFA40F227673AEAE9CFF93A996D19244BFA40F2283A37673853392C1AA
:208830009B009008CAD1520056B001A89244BFA40F2283A37673838392D95241EC039A78DB
:208840006F029A588AC3C4A4DE81C2C396C48AC3FEECA8A919011EC356BF30C4E2AF04BEE3
:2088500082BE86BE8BBE0006B2BDAABDA2BDFE0882A480DB8652C4548BA592A793A99D9FA8
:20886000531956C600039CE09B0054A756B101A847C39747EE1440C6EE0302016F02020252
:20887000A3C65DAD0901564100ABA9A4DD86A9C688A5E2AF00C47673AD6B6F1140C6EE0310
:2088800002016F020202A3C60901564100ABA9A4A9C68AC4C4D406C41E46C2445CAD5DADC2
:20889000DC86DD865CA45DA57673AC3C520056C000BA5CAD8F73B546DC865CA47673AC3CD5
:2088A0005200EC585CAD8F73B54ADC865CA47673AC3C5200EC4F5CAD8F73B536DC865CA400
:2088B0007673AC3C520056C3000C5CADDC8688A45CAD56BF01C1DC865CA47673AE9D92DBE6
:2088C000526156C2000E5261EC2D5241EC2B5245EC205246EC155247EC0AFFEF00A4526535
:2088D000EC185266EC0D526756C0009D5CADAA4283A3DC865CA4767383DEFFEF00945CAD15
:2088E000AA4283A3DC865CA47673856FFFEF008B5CADAA4283A3DC865CA4767385B1FFEF24
:2088F00000825CADAA4283A3DC865CA4767387C26F795CAD8F73B536DC865CA47673AC3C26
:20890000520056C400299247EC039A466F029A668AC2C4A4DE81C2C296C49247EC039A4E08
:208910006F029A6E8AC2C4A4DE81C2C296C49247EC039A496F029A698AC2C4A4DE81C2C227
:2089200096C48AC2A8A919011EC256BF2BC456BF03C16F489247EC039A466F029A668AC24D
:20893000C4A4DE81C2C296C49247EC039A4E6F029A6E8AC2C4A4DE81C2C296C49247EC03A0
:208940009A496F029A698AC2C4A4DE81C2C296C48AC2A8A919011EC256BF2DC456BF04C158
:208950006F219247EC039A4E6F029A6E8AC2C4A4DE81C2C296C49247EC039A416F029A614E
:208960008AC2C4A4DE81C2C296C49247EC039A4E6F029A6E8AC2C4A4DE81C2C296C456BFD7
:2089700002C1FE8882BE86BE8BBE0006B2BDAABDA2BDE20304BDFE0CA8A98BA53B01768033
:2089800001FED52082A481C91E4CA8A9FF1001FDBDA90F222B462B45865806A6E203044878
:208990007673AE5D83482B4A2B49A2A92BC5FF12007F8AA91E4892D9526456C200185264B4
:2089A000EC30525856C2000E5258EC2B5225EC215241EC3393A99DBB530256C9002F6F48E6
:2089B0005261EC2B5263EC356F43527056C2000D526F56C3001793A99D9B530256C9001E77
:2089C0005269EC0F6F355275EC0C5278EC0A6F308F73B5108AA37673AEB69A01FFEF00AFA6
:2089D0005CAD5DADDC88DD860EA41E425DA5AA448AA1767381E36F1B5CAD5DADDC88DD85D0
:2089E0000EA41E425DA5AA448AA1767388546F0F83C29B00DD8192C5A0C2520096C4DC8107
:2089F00056B101A8A848974918C1FFFD92D95275EC2D526FEC2B5278EC295258EC27527091
:208A0000EC259245EC055201ED2156BF014693C1CCA80002964A9246ED0741A8EF0B8A4895
:208A100056BF2BC46F048A4856BF2DC40201564100489246ED0B924AED0942C1EF078A48A8
:208A200002015641004856BF20C440C1EE0FBFA90F2203481EA63B0185C90FA656C4000755
:208A3000064C03A6090186A96F0286A302018AA2074883A99A0028A801FE7673AE4FA8486F
:208A40009249EC032B84A848064C0F4856C8000A0348D520DC8109017673AE5D8A4C2BC47C
:208A500044C1EF22A2A90FA2EC25AAA9D5308AA303A37673AE5D92D95278EC0F5258EC0DF1
:208A60005270EC0B924ACA46ED0342C1EF1392C296C356BF30C26F0E43C1EF0C92CA96CB6F
:208A700056BF30CA6F07AAA9D5208AA303A37673AE5D8AA37673AEAE9449FE8CE2AF04BE26
:208A800082BE86BE8BBE0006B2BDAABDA2BDE20304BDE20305BDFE0482A4C452BDA50F22B0
:208A9000E2AF05568B5440C6EE0302016F020202A3C60901564100ABA9A4A9C606C41E44EF
:208AA000EC525AD392A256C4000E8A447673AEAE1EA63B0192A285A90FA656C700047A42E8
:208AB0006F058A447673AEAE964292CB9342567200A872C1964154A856C5001140C3EE0E74
:208AC0009EA856C5000C5AA9DA819A20BFA70F26BFA40F223E67000AFFFA924256C5000F3C
:208AD0005A428B44DA81D981D901BFA70F2692C1BFA40F223E67000AFFF99342924154A8BF
:208AE00056C5001840C3EF159EA856C500135AA9DA819A20BFA70F26BFA40F223E67000AD2
:208AF000FFFA6F07BFA70F269A00BFA40F223E67FE84E2AF05BEE2AF04BE82BE86BE8BBE93
:208B00000006B2BDAABDA2BDE20304BDE20305BDE20306BDE20307BD5AADDA9608AD020C42
:208B100082A4A048E2AF06C2E2AF04D2E2AF05E28AC38BC37673AEAE8AA12B4907A18BA9A4
:208B20000FA456C900D62B4E2B4B2B4D284CFFFF92C45225EC12520056C100CB0201BFA74C
:208B30000F22560100C392C4BFA40F263E678AC30A4992C45225EDF05CAD0201560100C3D7
:208B4000DC8E5CA483A3767380005CADDC880EA45CAD83A31E42DC8E5CA4767380238AC32B
:208B500092C4524CEC1F5268EC10526CED21020107C38AA91EC392C4526CEC041A4E0040F7
:208B60006F171A4E01006F10020107C38AA91EC392C45268EC041A4E00206F0A1A4E02003B
:208B70006F031A4E0080020107C38AA91EC30201560100C392C4964B526EEC2D5273EC19B3
:208B80005CADDC880EA45CAD5DAD08A4FDF4DD8E1E425DA55CA4767389765CAD08A4FDF4AB
:208B9000BFA70F2ABFA50F265CA43E6772496F5B5CADDC8888A45CADDC89C2420EA45CAD9D
:208BA000BFA50F261E44E2030446DC8E5CA476738A846F49CC4E0760522088A9EC38524098
:208BB000EC2880A68F000100A8A90FA7EC0D88A68F000200A8A90FA6EC044048EF2A6F2BEB
:208BC0004048EF276F284048EE0302016F0202020901564100488A483B01BFAB0F2E854903
:208BD0008AC4568F568FBDAB0F2EA9C41ED46F1B4048EE0302016F02020209015641004805
:208BE0008A488AC43B0185491EC46F0D4048EE0302016F0202020901564100488A488AC4F3
:208BF000924996C48AC3B2A90FA456C6FF2E924908ADFDF4E2AF07BEE2AF06BEE2AF05BE0C
:208C0000E2AF04BE82BE86BE8BBE0006FE08E20300445CADDC885CA47673ADA3E5A0AD1413
:208C100056C3000AE2AF0048E8AFE0007700E20300466F0306481E46E2AF0046FE880006A8
:208C2000E20304BDFE0276739F43767391B7767391CB767391E576739404767394EB8F0076
:208C300080008F720778A8428F3200007673A0E876408759761F00308F0124F8A802761FC2
:208C400000308F0249F0A80A28A9E1C09BE4761F00301E12761F03008F339002A834761F25
:208C500001BF1A0D00107622761F01BE1807FFFC1807FFCF1A0A01001A0A0400761F01BF78
:208C60001A0201001A020400761A761F03002B139213520456C70013FF6928A9B9A89B658C
:208C700076408774761F01BF1A060100761F03000A139213520456C8FFF1E8026878E2AFA4
:208C8000012EFF69E80868C0E7000008E80200017673A6E9E68E00007700761F0301BFA9E7
:208C90000F129622FFC09623282401C2761F03028A3418C4FFCF8A3618C4FFCF8A3818C45A
:208CA000FFCF8A341AC400048A361AC400048A381AC400048A34761F03019222761F03025B
:208CB00096EC8A36761F03019222761F030296EC8A38761F03019222761F030296EC8A3410
:208CC0002BDC8A362BDC8A382BDC8A3428C4A00A8A3628C4A00A8A3828C4A00A8A342BFC16
:208CD0008A362BFC8338020B2BFD07348AA9020B56BF90C407368AA9020B56BF90C40738A4
:208CE0008AA9020F56BF90C407348AA9020F56BF0BC407368AA9020F56BF0BC407388AA98D
:208CF000761F0301021156BF0BC48824761F030207348AA9761F030102107EC48824761FF2
:208D0000030207348AA9761F030102117EC48824761F030207368AA9761F030102107EC44F
:208D10008824761F030207368AA9761F030102117EC48824761F030207388AA9761F03014E
:208D200002107EC48824761F030207388AA9021E7EC407348AA9021E2BC407368AA9021EB8
:208D30002BC407388AA92BC47622021207348AA902122BC407368AA902122BC407388AA9D1
:208D400002142BC407348AA902142BC407368AA902142BC407388AA92BC4761A8F00C004E2
:208D5000761F0306A82A8F00C005A82C8F00C017A82E8F00C018A83056BF013256BFC83893
:208D600056BF0533FF698F00C1A8C53A3E67761F030456BF061056BF011156BF091256BF6F
:208D7000031356BF0F1456BF0E1556BF0C1656BF07177622FF69761F01C01A1C0008767871
:208D80000080761A761F01C4FF698F0A2C2856BFE018A8A976408774761F01C4CD00F0FFEF
:208D9000761F03049230900F761F01C4FF87CAA896001A0000801818FFE11800FFEF180115
:208DA000F7FF1A0140001A0100401A010100CD03FFF0761F03049210900F761F01C4CAA883
:208DB0009603CD03FF0F761F03049211900F761F01C4FF83CAA89603CD03F0FF761F03040C
:208DC0009212900F761F01C4FF87CAA89603CC030FFF88A9761F030456030C13761F01C4E9
:208DD000CAA69603CD04FFF0761F03049214900F761F01C4CAA89604CD04FF0F761F0304F8
:208DE0009215900F761F01C4FF83CAA89604CD04F0FF761F03049216900F761F01C4FF87C2
:208DF000CAA89604CC040FFF88A9761F030456030C17761F01C4CAA69604CC02FFF05007B8
:208E00009602761A761F01A01A190800CC19F8FF1AA902009619CC1AFCFF1AA90100961A14
:208E10001A1C00041A190800CC19F8FF1AA902009619CC1AFCFF1AA90100961A1A1C0004EE
:208E2000761F0305283009C4FF69E801F400E2C401307673A6E9761F0305E203002E56BF17
:208E3000043102001E32761F0301021407068AA902152BC407068AA9021728C4821E0706B4
:208E40008AA902102BC407068AA98F56E3600216A0C407068AA9761F030528C480755603E3
:208E50000230761F03018A060EA91EE4761F01AC1815FFFB761F0300E2AF002EE850E58190
:208E6000E801FC007673A6E9761F0306E203001E761F0300E8020248E2AF012EE850000927
:208E7000E8087ED8E70000407700E85028007700E88FE001E801FC007673A6E9761F0306D4
:208E8000E2030020E8CFE0007700E20300228F001158A81C761F0300E2AF002EE850E58107
:208E9000E801FC007673A6E9761F0305E2030008761F0300E8020248E2AF012EE85000090E
:208EA000E8087ED8E70000407700E85028007700E88FE001E801FC007673A6E9761F0305A5
:208EB000E203000AE8CFE0007700E203000C8F001158A806761F0300E2AF002EE850E5801A
:208EC000761F0302E203001A761F0303E801F5F0E8091B60E203001CE801D500E8093F2015
:208ED000E203001EE80208F0E80B3330E2030020E80210C0E80E6668E2030022761F030025
:208EE000062E761F03031E24E2AF011EE2AF001CE6AF00007673A6E9761F0303E2AF0124A6
:208EF000E70000087673A86A761F0303E2030026E2AF0120E2AF00227673A6E9761F03035A
:208F0000E6CF0004E2AF011CE801FC007673A6E9761F0303E3080126E8CFE0097700E700E2
:208F100000087700E20300280626761F03091E0A761F03030628761F03091E06E801EAC897
:208F2000E80B8E58E2030018E801EEC0E80BE8F8E203001E761F030402011E02761F03088F
:208F3000E801FC00E203001E761F0300E2C40115E2AF002EE7000008E801F261E80E666936
:208F40007673A6E9761F0308E2030020E801FB98E8099998E2030022E805FB98E8099998AD
:208F5000E2030024761F0307E801F4C8E80CCCD0E203001CE801DA20E80CDD30E203001E3C
:208F6000E801F800E2030020E805F800E2030022E801F4C8761F0308E80CCCD0E20300065F
:208F7000E801DA20E80CDD30E2030008E801FA60E80E6668E203000AE805FA60E80E66680F
:208F8000E203000C767390FE7622761F00358F0084D1A820761A761F00331A260001761F2D
:208F900001A01A190008CC19FFF850019619CC1AFFFC5001961A1A1C000176230004761AC3
:208FA000FF698F33B26CA8427673ABAD8F33B280A8427673ABAD8F33B2BEA8427673ABADC2
:208FB0008F33B33CA8427673ABAD8F33B37CA8427673ABAD7673977F767396D0767396E6F6
:208FC00076739859D00F9A348F00C498939476739867761F03129A35931876739867761F6F
:208FD00003129A36931876739867761F03129A37931876739867761F03002B0A2B018F0073
:208FE000C004761F0306A82A8F00C005A82C8F00C017A82E8F00C018A83056BF013256BF3D
:208FF000C83856BF19338F00C1A8C53A3E679A007673914429102920761F0300FF69C53491
:209000003E676FFB761F0030CC048000FFCE5201ED2C1A048000761F0300063C761F0305DE
:209010000F2CED0F761F03000A149214522056C900122B14E590761F0306E203001A6F0A40
:20902000761F03002B14761F0305062C761F03001E3C761F01A0CC160004FFC15201ED0577
:20903000761F030056BF010B8F33903A761F0300A8340006761F0030CC0C8000FFCE520124
:20904000ED0C1A0C8000761F0300920B5201ED05761F01BF1A0604008F339052761F030042
:20905000A8340006FE02761F0030CC148000FFCE520156C0009E1A148000761F01BF1A0602
:209060000100767393126F1FE2C80002761F0306E284011C7673A6E9761F0300E2030020F1
:20907000920296006F16E2C80003761F0306E284011C7673A6E9761F0300E20300209203B9
:2090800096006F07761F03009201ECDF5201ECEC761F002CE801CBF8E801FB41E2C4020762
:20909000E80FFEA8E7000080E80DA1C9E7000008761F0307E2030000E811F400AD1456C323
:2090A0000023E590761F0300E20300302B002B0AD00F8F00C4989A34939476739867761FCF
:2090B00003129A35931876739867761F03129A36931876739867761F03129A37931876730D
:2090C00098676F36761F030092065202ED31920AED1EE590E20300302B003B01761F030614
:2090D0008524FF56523256C30024761F0308E2030028E203002CE2030010E2030014761F80
:2090E0000307E2030026E203002A6F125202ED09E2AF0020E86FE0007700E20300306F0896
:2090F000E2AF0020E84FE0007700E20300308F339002761F0300A834FE8200067622761F91
:2091000001A01A120020761F01A11A120020761F01A21A120020761F01A01A120100761F63
:2091100001A11A120100761F01A21A120100761F01A0CC14FFFC50029614CC14FFF35008D4
:209120009614761F01A1CC14FFFC50029614CC14FFF350089614761F01A2CC14FFFC50023E
:209130009614CC14FFF350089614761A761F01A01A170004761F01A11A170004761F01A202
:209140001A170004FF690006FE089641768068008F4068408F006880C248A046A844520015
:20915000EC3376222B429242520356C3002C3B015CADDC885CA456030142560100A4021714
:2091600007C48AA91AC400045CADDC885CA456030142560100A4021707C48AA91AC4000115
:209170005CADDC885CA456030142560100A4021207C48AA91AC401000A429242520356C45B
:20918000FFD9761A6F3276222B429242520356C3002C3B015CADDC885CA4560301425601B7
:2091900000A4021707C48AA91AC400045CADDC885CA456030142560100A4021707C48AA907
:2091A0001AC400015CADDC885CA456030142560100A4021207C48AA918C4FEFF0A429242C1
:2091B000520356C4FFD9761AFE88FF6900067622761F01BE1818FCFF1A1B001018083FFF1A
:2091C000180BFF7F1A0D0080761A761F01BF1A0D0010FF6900067622761F01BE1808F3FFBF
:2091D0001A0B00201806CFFF1A0A00401819FF3F1A1B0800761F01BF1A0300201A02004050
:2091E0001A0B0800761AFF6900067622761F01BE1816FFCF181AFFFB1A1C0004761AFF69FE
:2091F00000067622761F01A0CC0EFFFC5001960ECC0EFFF35004960E761F01A1CC0EFFFCF1
:209200005001960ECC0EFFF35004960E761F01A2CC0EFFFC5001960ECC0EFFF35004960ECF
:20921000761AFF6900067622761F01A0CC0EFFFC5001960ECC0EFFF35008960E761F01A1A9
:20922000CC0EFFFC5001960ECC0EFFF35008960E761F01A2CC0EFFFC5001960ECC0EFFF3CE
:209230005008960E761AFF6900067622761F01A0180EFFFC180EFFF3761F01A1180EFFFCC5
:20924000180EFFF3761F01A2180EFFFC180EFFF3761AFF690006FE02761F030656BF0200D2
:2092500092007673947B761F002C92019641767394B9761F03069241FFA79601924190FF03
:209260009602761F002C92029641767394B9761F03069241FFA79603924190FF96048F00B9
:20927000C180560301009C01767392E3761F0300960E920E767394B9FE820006FE02761F1B
:209280000301E2AF002CE850E0007700E890C000761F0300E68E000058099A01BFA60F12B8
:2092900094A08F00C28096097E949209523256C9004A2B092B419241520856C300108F00FB
:2092A000C0EA3B01A8A981418AA992C47673949A0A419241520856C4FFF4761F03032B3298
:2092B00056BF323392327673949A761F030392337673949A2B419241523256C300108F0057
:2092C000C2803B01A8A981418AA992C47673949A0A419241523256C4FFF456BF0B4192417A
:2092D000520F56C300108F00C0EA3B01A8A981418AA992C47673949A0A419241520F56C433
:2092E000FFF4FE820006FE069643A8422844FFFF5200EC208A4292C490FFF2442B45924538
:2092F000520856C700124044EE059244FFC096446F069244FFC096441C44A0010A459245E4
:20930000520856C8FFF20B43020107421E429243EDE256030844CD44FF00FFD7CBA992A80D
:20931000FE860006761F002C9200761F030096029207540256C70005920796026F079208DE
:20932000540256C9000492089602761F01BF4208EE22761F03002803025856BF010156BF8A
:20933000010AD00B8F00C4989A349394767398679A358F00C49893CC76739867761F0312C4
:209340009A36931876739867761F03129A379318767398679A248F00C482767398A1761F52
:20935000031292025244ED22761F0300280303E856BF010156BF010AD00B8F00C4989A3436
:209360009394767398679A358F00C49893D476739867761F03129A36931876739867761F33
:2093700003129A37931876739867761F03129202524CED22761F0300280305DC56BF0101BE
:2093800056BF010AD00B8F00C4989A349394767398679A358F00C49893DC76739867761F64
:2093900003129A36931876739867761F03129A37931876739867761F031292025254ED1F47
:2093A000D00A8F00C4989A349394767398679A358F00C49893CC76739867761F03129A3690
:2093B000931876739867761F03129A37931876739867761F03002B0156BF010A761F03126E
:2093C0009202525CED1FD00A8F00C4989A349394767398679A358F00C49893D47673986794
:2093D000761F03129A36931876739867761F03129A37931876739867761F03002B0156BF89
:2093E000020A761F031292025264ED1ED00F8F00C4989A34939476739867761F03129A3542
:2093F000931876739867761F03129A36931876739867761F03129A37931876739867761F1A
:2094000003002B0A2B0100067622761F01BE180DEFFF180DDFFF1A050300CC09FCFF1AA92B
:2094100001009609CC09F3FF1AA904009609761A761F01C11811FFDF56BF07102B1256BF03
:2094200004131A1100201A1A8000CC1BFFE05010961B1A1100021A1100011A1A40001A1B3D
:20943000002076228F33A307761F0037A800761A761F00331A32000176230100761F01C1EE
:209440002B1C1A1A20001A1B2000FF6900067622761F01BE181DBFFF181D7FFF1A153000BD
:20945000CC19CFFF1AA910009619CC193FFF1AA940009619761A761F01DD1831FFDF56BFB3
:2094600007302B3256BF01331A3100201A3A8000CC3BFFE05010963B1A3100021A31000120
:209470001A3A40001A3B00202B3C1A3A20001A3B2000FF690006FE04964102001E448F0148
:2094800031286F08020107441E44A8A90F4456C80009761F01C1CC140040FFC55201EDF313
:209490008F013128A8A90F4456C8000492419619FE840006FE04964102001E448F013128DD
:2094A0006F08020107441E44A8A90F4456C80009761F01DDCC340040FFC55201EDF38F0180
:2094B0003128A8A90F4456C8000492419639FE840006FE029641FFA77673947B9241767322
:2094C000947BFE820006FE0697459641A8442B466F089A0D7673947B9A0A7673947B0A46E1
:2094D0009241544656C2FFF76F059284A8447673947B8A4492C4EDFA2B466F089A0D767310
:2094E000947B9A0A7673947B0A469245544656C2FFF7FE860006FE0E2B4D8F7395238F3368
:2094F000952876F3952F76B3954DA0429A028F739554A8448F339559C346C248A04A8F7363
:20950000951CA84C8F33B55276739ADE964D5200ED128F00C34C8F73B55EA8428F33B558DC
:209510007673A29D8F00C34C56BF0441D50002007673A65FFE8E0006FE0497449643A84224
:209520009A00FE840006FE0296419A00FE820006FE0697459641A8449A00FE860006FE0647
:2095300097459641A8442B469DFF924552009745EC123B01804685A78AA99A0194A7964659
:20954000A8A907448AA992C47673947B92450B455200EDF19245FE860006FE067D457C41B3
:209550001E440200FE860006FE02A8429A00FE820006FE04A044A8429A00FE840006762279
:20956000761F01BE180DFFFB180DFFF71A0400C0CC08FFCF50209608CC08FF3F508096084F
:20957000761A761F01DD1811FFDF56BF07102B1256BF0A131A1100201A1A8000CC1BFFE071
:209580005008961B1A1100021A110001761F01C11A1400011A140002181AFFDF761F01DD30
:209590001A1A40002B1C1A1A20001A1B2000FF690006FE04964102001E448F0131286F084C
:2095A000020107441E44A8A90F4456C80009761F01DDCC140040FFC55201EDF38F013128BD
:2095B000A8A90F4456C8000492419619FE840006761F030B88260E270FA6EC1B58268F007C
:2095C000C2E89294520F56C6000958949A348F00C498939476739867761F030B9B140A26FF
:2095D000922600F3AE7A962688260E270FA6EDE70006FE069643A8422B442B45544556C91C
:2095E000000A5845929472440A459243544556C6FFFA9244FE860006761F030B88260E2730
:2095F0000FA6EC7B58268F00C2E8929452AAED6B9226521056C60068A8A90D268AA99A031C
:20960000767395D99625182500FF582688258F00C2E8D8030E940FA6ED4F5826D8029294AC
:2096100096245603082496245826D80192947224768003E80E24F60F1FA658A98F00C49865
:209620009A34939476739867761F030BBE640E24F60F1FA69B0A00F3AE7A58A98F00C498E0
:209630009A35939476739867761F030BBE0A0E24F60F1FA69B0A00F3AE7A58A98F00C49829
:209640009A36939476739867761F030B9B0A922400F3AE7A58A98F00C4989A379394767345
:209650009867761F030B082600049226521456C800112B266F0E0A269B14922600F3AE7A59
:2096600096266F070A269B14922600F3AE7A962688260E270FA6ED870006761F01DD181B92
:20967000DFFF1A1B2000CC1B1F00FFC7520856C5FFFC761F030B2B272B268F00C2E86F0B72
:20968000761F030B5827761F01DD92179694761F030B0A27761F01DDCC1B1F00FFC7EDF171
:20969000761F030B9227520456C8003B9226521456C70037761F030B58268F00C2E89294BD
:2096A00052AAED25A8A90D268AA99A03767395D99625182500FF582688258F00C2E8D803BB
:2096B0000E940FA6ED0D5826D802929496245603082496245826D801929472246F110A260F
:2096C0009B14922600F3AE7A96266F070A269B14922600F3AE7A9626521456C8FFCD000612
:2096D0007622761F01BE181CFFFE181CFFFD1A1200031A12000CCC16FFFC50019616CC160A
:2096E000FFF350049616761AFF690006FE02761F01E41809FFDF8F0001C0A8A976408774AF
:2096F000761F01E456BF0E0C56BF20098F0186A028A808F0920C9C01A84288A928A9D1807D
:20970000FF5A0200F61F561700A6A9A900F3AC661EA628AC001F3B01562207A6FF409CF686
:20971000960328A808F0920C9C01A84288A928A9D180FF5A0200F61F561700A6A9A900F398
:20972000AC661EA63B01562207A6FF409CFB9604282060002821204076228F33AE1F761F75
:209730000036A830761A762300802910FF69FE820006FE04A842761F01E4CC090800FFCA2F
:209740005201ED0428A955556F26CC021000FFCB5201ED0428A910006F1E020C07421EA73F
:2097500092C796072B436F080E43074209131EA792C796080A43020E07428AA992C45443E6
:2097600056C6FFF4020E07421EA792C7960528092E209A00FE840006FE02A842020C0742E6
:209770001EA7761F01E492C79607020E07421EA792C7960528092C209A00FE820006FE02F5
:209780007622761F01BF1A0A0001761F01BE1816FFFC1A1A0001761F01BF1A0C0001761FF4
:2097900001BE1816FFF31A1A0002761A761F01BF1A0A00012B429242520A56C700070A428D
:2097A0009242520A56C8FFFD761F01BF1A0A00022B429242520A56C700070A429242520AA7
:2097B00056C8FFFD761F01BF1A0C00012B429242520A56C700070A429242520A56C8FFFDAC
:2097C000761F01BF1A0C00022B429242520A56C700070A429242520A56C8FFFD761F01BF60
:2097D0001A0A00012B429242520A56C700070A429242520A56C8FFFD2B419241520956C746
:2097E0000023761F01BF1A0A00022B429242520A56C700070A429242520A56C8FFFD761FDF
:2097F00001BF1A0C00022B429242520A56C700070A429242520A56C8FFFD0A4192415209A1
:2098000056C8FFE1761F01BF1A0A00022B429242520A56C700070A429242520A56C8FFFD78
:20981000761F01BF1A0C00012B429242520A56C700070A429242520A56C8FFFD761F01BF10
:209820001A0C00022B429242520A56C700070A429242520A56C8FFFD761F01BF1A0A00022E
:209830002B429242520A56C700070A429242520A56C8FFFD761F01BF1A0A00012B42924206
:20984000520A56C700070A429242520A56C8FFFD761F01BF1A0C00022B429242520A56C7BB
:2098500000070A429242520A56C8FFFDFE82FF690006761F031256BF11009A249300767363
:2098600098678F0493CFA8A9764087740006FE0297429641761F031356BF012892419626C4
:209870009242962D8F00C4DA76739739761F031302001E3256BF01258F003A986F18020138
:20988000761F031356010032A8A90F3256C7001002001E327673977F761F03132B25761FF4
:2098900001E41A0908002802FFFF6F05761F01E44502EFE61A020020029476408774FE8273
:2098A0000006FE049641A844761F031356BF0128924196268F00C4DA7673976C761F0313A1
:2098B00002001E3256BF03258F003A986F13A8A9761F03130F3256C7000E7673977F761F2A
:2098C00003132B25761F01E41A0908002802FFFF6F05761F01E44502EFEB1A020020020008
:2098D000761F03131E3256BF04256F048A44920696C4761F01E4CC211F00FFC7EDF88F004C
:2098E00001C0A8A976408774FE840006FE049742964192429643761F031288030E430FA683
:2098F000EC459241ED0E768003E80E43F60F1FA658A98F00C4989A349394767398676F0B1A
:209900008F00C4983B01A8A981418AA99A3493C476739867BE640E43F60F1FA69B0A00F3F8
:20991000AE7A58A98F00C4989A35939476739867BE0A0E43F60F1FA69B0A00F3AE7A58A9A1
:209920008F00C4989A3693947673986792439B0A00F3AE7A58A98F00C4989A3793947673FB
:2099300098679243761F03129603FE840006520088A856C40016520A56C300133B018F4033
:20994000C542560302A9560100A5C5C506A7EC0892D583A7D01093A6C5953E67000628A955
:20995000FFFF0006B2BDAABD86A4A2BD92C2EC138D40C580D330D9188AA183A27673AE8ACA
:209960005200ED038AA16F080218DB98D9180FA356C9FFF4D40082BE86BE8BBE0006B2BDAB
:20997000AABDA2BDFE0A82A49A3A8AC37673AE6986A4A8A9EC2083C35CAD92A29EA5DC8910
:2099800059A93B0152085CA456B208A185A17673ACF35CAD3B01DC890EA481A18AA92BC430
:209990005CADDC895CA476739952A8A9EC04DA01AAC36F038F00C580FE8A82BE86BE8BBE51
:2099A0000006B2BDFE02761F0311C530A8423E675CADDC825CA47673996FD014C5948A42A4
:2099B0003E67761F031159A9C5323E6792A1FE828BBE0006B2BDAABDFE04761F0311C53033
:2099C000A042A8443E675CADDC845CA47673996F86A45CADDC825CA47673996F83A2A8A9C2
:2099D0000FA5EC08761F0311C5323E6728A9FFFF6F0CD0168A44C59583423E67761F03111F
:2099E00059A9C5323E6792A1FE8486BE8BBE0006761F0311AABDC53086A43E678AA2767398
:2099F0009952A8A9EC08761F0311C5322BC43E679A006F07761F0311C5323E6728A9FFFFCF
:209A000086BE0006520088A856C40016520A56C300133B018F40C542560302A9560100A5B0
:209A1000C5C506A7EC0892D583A7D00E93A6C5953E67000628A9FFFF0006B2BDAABDA2BD54
:209A2000FE04761F0311C53059A9A8423E67761F031592017943ED1056BF01017680C54EDC
:209A3000D406B600DE04020083A6DC8119010FA4DD84C3C5EDF88D80C54282A2DB0C8F00D3
:209A4000C56A6F02DB04A8A90FA3ED048DFFFFFF6F3106C3EDF8761F0311A2A93B01C53096
:209A500003A2FF4182A93E675CADDC825CA47673996F8BA4D0094091EE22D00A92438A4285
:209A6000C59193A33E675200964356C4001B3B01560302A307A28AA9D00992434191B2C449
:209A700096D4EE04D9091AC10001761F0311C5323E67761F0311C5323E676F0C2843FFFF4E
:209A8000761F0311C5323E67761F0311C5323E675B4392A3FE8482BE86BE8BBE0006FF5ABB
:209A900092A456C40015520A56C300123B018F00C542560302A9560100A406C4EC081EA677
:209AA000D0125CD4A9A9C5963E670006020019010006B2BD520059A9AABD56C40016520A64
:209AB00056C30013761F0311C5303E678D80C5423B01560302A1560100A206C2ED08761F90
:209AC0000311C5323E6728A9FFFF6F168AA9D00C92D2C5943E6759A91BA1FFFFEC08BE00A3
:209AD000020907C28AA9C2C218C4FFFE761F0311C5323E6792A186BE8BBE0006B2BDAABD31
:209AE000A2BDE20304BDE20305BDE20306BDE20307BDFE08761F0311C5305BA9A848A362CC
:209AF000C460E2AF075EE2AF065CE2AF055A8A64BDA50F22A944C246A8423E67761F0315A7
:209B00008B489200ED0E8F00C58056BF0100D530DC182BC40218DD98DC180FA556C9FFFBC3
:209B10008AA176739952A8A9EC07761F0311C5323E679A016F368D80C5988F00C5C86F0276
:209B2000DA18A8A90FA2ED08761F0311C5323E6728A9FFFF6F2692C2EDF402088AA283A104
:209B30007673ACF3D116D0082B92D0097B92761F03110646D00AE2030492D00CE203059289
:209B4000D00EE2030692D010E2030792D0121E92D01406441E920642C5321E9A3E679A00A6
:209B5000FE88E2AF07BEE2AF06BEE2AF05BEE2AF04BE82BE86BE8BBE0006761F0311B2BD32
:209B6000C530AABD59A95AA8A2BD82A43E671BA2010083A356C900048D80010092A18DC0C6
:209B7000C468FFC793A296CB79C37AD38AA392A2FFC796DB9AF37673A540D5008AA37673E6
:209B8000A5982901761F0311560308290D28761F0311FF3FC5320EA88BA93E6792A182BE16
:209B900086BE8BBE0006761F0311B2BDC530AABDA2BD82A43E678AA37673AEAE8D80C468D9
:209BA0009C0193A99AF58AA283A37673A540D5008AA27673A5982901761F0311560308CAF8
:209BB000C5320DC2FF3F0EA88BA93E6792A182BE86BE8BBE0006761F0311B2BDC530AABD88
:209BC0003E678D40C4689AF89B00D5008AA17673A540D5008AA17673A59888D928AC001879
:209BD000761F031106A6563B0D28761F03111EA62901C53225D107A686A9560308C98BA99C
:209BE0003E67B2A907A286BE8BBE0006B2BDA2BDFE64761F0311C53082A58BA43E675CAD57
:209BF000DCE483A15CA47673AEB68AA17673AEAE5CAD9C013B0159A9DCE483A30EA481A116
:209C00008AA97673AEB68AA37673AEAE8DC0C46893A95DAD9AF78AA395A1DDE49D015DA53E
:209C10007673A540D5008AA37673A5982901761F0311560308CBC5320DC3FF3F0EA88BA950
:209C20003E6792A1FEE482BE8BBE0006B2BD761F0311AABDC53059A95AA8A2BD82A4E203F9
:209C300004BD3E671BA20100BDA30F2256C900048D80010092A18DC0C468FFC79B00D5004C
:209C400096CB79C37AD38AA392A2FFC796DB9AF27673A540BFA50F228AA37673A598290116
:209C5000761F0311560308290D28761F0311FF3FC5320EA88BA93E6792A1E2AF04BE82BE59
:209C600086BE8BBE0006B2BD761F0311AABDC53059A85AA9A2BDE20304BDBDA40F223E679D
:209C70008DC0C46892A1FFC779C37AD396CBBFA40F2292A2FFC796DB7673AEAE9C0193A95B
:209C80009AF08AA3BFA50F227673A540D5008AA37673A5982901761F0311560308290D28F0
:209C9000761F0311FF3FC5320EA886A93E6792A256C4000392A1E2AF04BE82BE86BE8BBEA8
:209CA0000006761F0311B2BDC530AABD59A45AA5A2BD82A93E6792A12901FFC7C4A328ACA1
:209CB00000188DC0C468D50096CB06A68AA379C37ED37AF3FF4796DB06A697E306A65622F9
:209CC0009B0096EB92A2FFC796FB9AF47673A540D5008AA37673A598761F0311882B28AC29
:209CD0000018290106A6563B0D281EA6252A761F0311C532761F031107A68BA956030829F9
:209CE00086A93E67AAA907A182BE86BE8BBE0006761F0311B2BDC530AABD86A4A2BD82A59E
:209CF0003E678AA27673AEAE8D40C4689C0193A99AF68AA183A27673A5408AA183A3767384
:209D0000A598761F0311C5323E678AA37673AEAEFF58ED02D3008AA382BE86BE8BBE000636
:209D1000761F0311B2BDC53059A9AABD3E678D80C46892A19B00D500FFC78AA279C296CAAF
:209D20009AF17673A540D5008AA27673A5982901761F0311560308290D28761F0311FF3F2A
:209D3000C5320EA88BA93E6792A186BE8BBE0006761F0311B2BDC530AABD3E678D40C468B5
:209D40009AF99B00D5008AA17673A540D5008AA17673A59888D928AC0018761F031106A63F
:209D5000563B0D28761F03111EA62901C53225D107A686A9560308C98BA93E67B2A907A2C6
:209D600086BE8BBE0006B2BDA8A98BA4EC41761F0311C5303E67761F0311C422D982B2A9AC
:209D700083A10FA656C900088AA6C4D40FA656C6FFFD6F02D400A3C5A9A907A509021EA7C3
:209D800006A60FA7ED0806C6C4D6FF5407C509021EC5A3C5A8A9C2D5EC1003C41EA6A0A9D9
:209D9000DE020FA6EC03A0D46F0BC4D5A9A9FF5407C4C2D419026F07761F0311A0228AA577
:209DA000A9A9FF541EC4761F0311C5323E678BBE0006761F0311C5303E67761F03118F000D
:209DB00000508F40040040A4A024EF04DD81DC01A0244024A822EF040201564100240202F3
:209DC0000324761F0311C5321EC4761F03110200A8262B2019011ED43E670006B2BDAABD89
:209DD00086A928A9FFFA28A87FFF0FA256C80004AAA9ED03D1006F5092A2761F0311900118
:209DE00088A93B01C530AAA981A686A93E67761F03119220EC0376739DA9761F0311D500BC
:209DF0008B226F048AA183A18BD4020019010FA1ED03D1006F2DC5C106A7FF541EA6AAA9BF
:209E00000FA656C2FFF109040FA656C8000EA0A9ED0606D1761F03111E226F048AA506D122
:209E10001ED4C2C16F14AAAB565700A1A9A4AAA907A70902DC021EC4AAC1A0A9ED05761F43
:209E20000311A8226F02A8D506D11ED4D902761F0311C5323E678AA186BE8BBE0006B2BD40
:209E3000AABDA2BDFE021EA628A9FFFA28A87FFFA8420FA656C8000706A686A6ED067673F8
:209E40009D63D400FFEF00A20642ED06AAA976739DCEFFEF009B92A2761F03118B429001F8
:209E50003B0188A9C530AAA9D98281A686A9064207C182A93E67C4C106A60FA256C300169B
:209E6000761F0311062407260FA356C9006DC5C306A756C20069FF5856C3000806A603A720
:209E700009020FA256C80060761F03118A22B2A90FA456C90008C5A48AD40FA456C6FFFD7C
:209E80006F02B600C442A3C1A9A907A60FA4EC17565D00A202040FAB56C6004088AB9A023C
:209E90009EA6C442AAAB565700A6A9A53B0185A91EC5A8D5AAC106A7EC1A6F1DC4C4020272
:209EA000565D00A6565D00A20FAB56C30018C44292ABAAAB3B01565700A6A9A5FF5CC4D4A1
:209EB00085A91EC5AAC1C2D506A7ED05761F0311A0226F138AA7A0D46F1006A7ED0606D455
:209EC000761F03111E226F0406D48AA71ED406A6FF5407C109021EC1761F0311C5323E6733
:209ED0008A426F13761F0311C5323E67AAA976739DCE86A4A8A9EC08834206C17673AD3077
:209EE0008A4276739D638AA2FE8282BE86BE8BBE0006761F0311B2BDC5303E67D100761F16
:209EF000031192208A22ED11020019010FA4EC0D3B01C4C485A10FA656C5000359A68AD400
:209F0000020019010FA4EDF6761F0311C5323E6792A1FF5C8BBE0006761F0311B2BDC53060
:209F10003E67D100761F031192208A22ED0D020019010FA4EC0992A19EC48AD459A90200FF
:209F200019010FA4EDF9761F0311C5323E6792A18BBE0006D4000006B2BDC4461EAC5644F0
:209F300000A68BA976739DCEC4A4A8A9EC0AB2A9EC08D9810200D9812B8419010FA1EDFBCE
:209F40008BBE8AA600067673A07D3B1076260000762F00009A0AFF697673A0857673A0A8A5
:209F50007673A0C77622761F01C056BF021A56BF021B1A1C00081A1C00101A1C01001A1C5F
:209F600004001A1C08001A1C0020181CBFFF181C7FFF1A1D01001A1D02001A1D04001A1DC2
:209F700008001A1D00011A1D00021A1D00041A1D00081A1D00101A1D00201A1D40001A1D92
:209F800080001A1C0004761F01BECC06FFFC50019606CC06FFF350049606CC06FFCF501045
:209F90009606CC06FF3F50409606CC06FCFF1AA901009606CC06F3FF1AA904009606CC06B3
:209FA000CFFF1AA910009606CC063FFF1AA940009606CC07FFFC50019607CC07FFF35004E0
:209FB0009607CC07FFCF50109607CC07FF3F50409607CC07FCFF1AA901009607CC07F3FF24
:209FC0001AA9040096071807CFFF180ABFFF18073FFF180A7FFF1808FFFC180BFFFE1808F8
:209FD000FFF3180BFFFD1808FFCF180BFFFB1808FF3F180BFFF7CC09FFFC50029609180BFA
:209FE000FEFFCC09FFF350089609180BFDFFCC09FFCF50209609180BFBFF1809FF3F1A0B34
:209FF0000800CC09FCFF1AA901009609CC09F3FF1AA9040096091809CFFF180BBFFF1809F8
:20A000003FFF1A0B8000761F01BF1A038000761F01BE1816FFFC181AFFFE1816FFF3181A6D
:20A01000FFFD1816FFCF1A1A0004761F01BF1A0A0004761F01BE1816FF3F181AFFF718166D
:20A02000FCFF181AFFEF1816CFFF1A1A0040761F01BF1A0A0040761F01BE18163FFF1A1AE8
:20A030000080761F01BF1A0A0080761F01BE1818FFFC181BFFFE1818FFF3181BFFFDCC18B3
:20A04000FFCF50109618181BFFFBCC18FF3F50409618181BFFF7CC18F3FF1AA90400961823
:20A05000181BFFDF1819FFCF181BFBFF1819FF3F181BF7FF1819FCFF181BEFFF1819F3FFAB
:20A06000181BDFFF1819CFFF181BBFFF18193FFF181B7FFF1828FCFF182BFFEF1828F3FF21
:20A07000182BFFDF1828CFFF182BFFBF18283FFF182BFF7F761AFF6900067622761F01C075
:20A0800056BF6829761AFF690006FE029641761F01C04311EF0276250E411EA69221900FAA
:20A0900080A906A60FA7EC1276221A1100409241CD21FFF0900FCAA89621761AFF697673CB
:20A0A000A07D76221811FFBF761AFE82FF6900063B10761F00331820FFFE2B222B242B2651
:20A0B0002B282B2A2B2C2B2E2B302B322B342B362B382B232B252B272B292B2B2B2D2B2F11
:20A0C0002B312B332B352B372B39FF690006FE068F33AE80A8448F000D00A84676222B41C4
:20A0D0009241528056C3000E8A468344A8A909021E4606C51EC40A419241528056C4FFF6A1
:20A0E000761A761F00331A200001FF69FE860006FE04A044A84206440F4256C9000E8A4277
:20A0F0009284A8428A48C4A4DE01C24896C406440F4256C6FFF6FE840006D500A0BDA0BD10
:20A10000A0BDA0BDA0BDA0BD804FF3A72902565E565E630256588AA9A9A5A352065063028B
:20A1100056581E4AA94C0FA46003A9A90FA5610F6613064A6113A0ABA8A97673A1CE06421F
:20A12000A3444FA76C025658FE8C000628AB00012BAA02006FF756336FF80200A8ABF61F2B
:20A130005617004CA9A4A0ABF61F5617004CA8A96FE9D500A0BDA0BDA0BDA0BDA0BDA0BD44
:20A1400080A82902565E565E630256588AA9A9A5A3520650630256581E4AA94C0FA46003DF
:20A15000A9A90FA56112660E064A6112A0ABA8A97673A1CE0646A3484FA76C025658FE8C78
:20A160000006A8A9A0AB6FF95633FE8C00060200A8ABF61F5617004CA0ABF61F5617004C80
:20A17000FF5A02006FEAD500A0BDA0BDA0BDA0BDA0BDA0BD8AA9A9A50F506003A9A90F5222
:20A18000610F68130650611306501E4A06521E4CA8A97673A1CE0642A344FE8C000628AB4F
:20A1900000012BAA02006FFA56336FF80200A8ABF61F56170052A9A4A0ABF61F56170052E9
:20A1A000A8A96FECD500A0BDA0BDA0BDA0BDA0BDA0BD8AA9A9A50F506003A9A90F52611188
:20A1B000680E0650611006501E4A06521E4CA8A97673A1CE0646A348FE8C0006A8A96FFDA5
:20A1C00056336FFB0200A8ABF61F56170052A0ABF61F56170052FF5A02006FEFD03F565EC8
:20A1D000565E640E5635565221A55635565222A893A09FAC9FA597A02AA856A0D88156A043
:20A1E0008AA9A9A5064AFF531E4AFF5A0648FF531E480F4C6003A9A90F4E680A0648565D95
:20A1F000004E5654004C1E48A94A3B086F03064829080646FF531E460644FF531E44A8A92D
:20A20000A0AB0008FFDE0006B2BDA0A98BA58346EC7076B3A27D761F030B92CD80C5C23C6E
:20A21000EC105262BE01EC0593D5536256B000A6522B28AA0001EC0792D5522BEC046F027D
:20A22000BE002BAA9A0093AAED0F93A75372ED039B106F085377EC035361ED039B206F021E
:20A230009B0027A86F022BAB93A7536156B180A556B000A593ABCBA527A893A6EC048F4023
:20A2400001006F02D50093ABCBA5D00A27A893AA56B040A556B100A593ABCBA5979193A67D
:20A25000EC0328A9800093A75361EC135372EC045377EC066F1693AAEC1450026F1293AA7E
:20A26000EC039B026F029B01CAA81AA906006F0993AAEC039B026F029B01CAA81AA902087D
:20A2700028A801B676739A1D520096C156C30004D4006F028AA18BBE0006B2BDAABD8D803F
:20A28000C3408AA27673A99A761F030C9200520256C40012D101DA0C92C256C400058AA256
:20A290007673A99AD901761F030C92A1DA0C540056C4FFF486BE8BBE0006B2BDAABDA2BDC2
:20A2A000FE02761F0311C530864C8BA582A43E678AA27673A99AB2428AA383A27673A20406
:20A2B000761F0311C53286A43E67FE828AA282BE86BE8BBE0006761F03119235ED0B56BF23
:20A2C00001358F00C364BE0628C4FFFFDC0C000EFFFD8F40C3402BAC6F0492AC9C012DA925
:20A2D00092AC761F030C540056C30008350C07A58AA91BC4FFFFEDF292AC520AED030200AF
:20A2E0006F0B350C07A58AA992AC5400ED020A00A8A9F60B2B848AA90006AABDA2BDFE0239
:20A2F000761F0311C53082A586A43E677673A2BB83A4A2428AA27673A204761F0311C5320E
:20A3000086A43E67FE828AA282BE86BE0006761BFFF00005ABBDA8BDA0BDC2BDC3BDE200A8
:20A3100000BDE20300BDE20301BDE20302BDE20303BDE6300600FE12FF69294256162B51FB
:20A32000761F01C11A1B0040761F003328210100761F01C14F1BEE186F105CAD5851DC90DB
:20A330005CA4921796945CAD5851DC905CA492947673947B0A512B51761F01C1CC1B1F00CA
:20A34000FFC7EDEC6F071A1B4000181BDFFF1A1B2000FE92E2AF03BEE2AF02BEE2AF01BE8A
:20A35000E2AF00BEE28000BEC5BEC4BE83BE8ABE87BE0003FFF176177602761BFFF000052E
:20A36000ABBDA8BDA0BDC2BDC3BDE20000BDE20300BDE20301BDE20302BDE20303BDE63071
:20A370000600FE12FF69294256162B51761F01DD1A3B0040761F003356BF8021761F01DD03
:20A380004F3BEE186F105CAD5851DC905CA4923796945CAD5851DC905CA492947673949A42
:20A390000A512B51761F01DDCC3B1F00FFC7EDEC6F071A3B4000183BDFFF1A3B2000FE925D
:20A3A000E2AF03BEE2AF02BEE2AF01BEE2AF00BEE28000BEC5BEC4BE83BE8ABE87BE000365
:20A3B000FFF176177602761BFFF00005A8BDE20000BDE630060029425616761F01DD1A1B74
:20A3C0000040761F003328210100761F01DD4F1BEE1A8F00C2E86F10761F030B5827761FD7
:20A3D00001DD92179694761F030B0A279227521456C800032B27761F01DDCC1B1F00FFC717
:20A3E000EDEC6F071A1B4000181BDFFF1A1B2000E28000BE8ABE0003FFF176177602B2BD64
:20A3F000AABDA2BDE20304BDFE06761F0311C5308BA5BDA40F223E678AA17673A8D25200F8
:20A40000E2030444ED05761F0311C5326F7292F19EE1BFA40F2296427673AEAED00A86A9E0
:20A410001E46929190075204EC4D0646EC6E2B413B01D00A854288910FA256C800045BA2A7
:20A420006F025B42CCA600075202ED1685A38A44D50ABDA90F227673AE30A8A9EC0D8A44F3
:20A43000D50ABFA90F227673AE3092A4284100019E449C015BA93B0183448AE185A376732B
:20A44000AD303B0185A3560100E1064481A31E44AAA9AEA386A992429EA39642EC03924131
:20A45000EC0E8AA17673A7F45200ED1D92F18AA12B419EE19642DC0A1AC40020AAA9EDB999
:20A460006F24AAA9EC22D300BFA90F223B0188C181A38AA993A292A67673993788A95200F7
:20A4700056C3000C761F0311D90AC5321AC104003E6728A9FFFF6F0EAAA93B01AEA686A942
:20A4800092A672A3AAA9EDE1761F0311C5323E679246FE86E2AF04BE82BE86BE8BBE000687
:20A49000B2BD8D40C34CAABD83A17673A3EF8F33B5605AA983A17673A3EF93A992A294A836
:20A4A00086BE8BBE0006B2BDAABDA2BDFE0206A6FFE100845FDCA3C406D4FF90FFD497410E
:20A4B00006D456AA1AA8800056911BA70000630256588EA9A9A11B410000600456A26172A8
:20A4C0006F7D1B4107FF61745FDDA3C506D5FF90FFD4974206D556AA1AA8800056911BA7D9
:20A4D00000006302565886A9A9A31B420000600456A2615B6F631B4207FF615A93419F42C4
:20A4E000630AB2AB8BA3A9A33AAB8EA2A9A25D427D41FF5D2DA83AA9B2AB1BAC0036630F7B
:20A4F0001BAC00006108AAA9A2AB562C86A9A9A3B2AB3AA9565700A3564000A2565E565E4F
:20A50000612A97A7565E565E630256585C415635565221A35635565222A893A49FAC9FA3A2
:20A5100097A42AA88DC00200565700A3D300564000A3630418A87FFF0AA45699910F0AA4E3
:20A52000651D1BA407FF631418A7800099A793A4FF93CBA7A9C61ED6FE8282BE86BE8BBEF3
:20A53000000606D5A3C56FF706D4A3C46FF45633CDA780001AA87FF06FEE56336FEC0000C9
:20A54000B2BD76C0C900D000BE07AABD5AA897C796CF40A0EE0A92A0FFC027A906A70DABCE
:20A550008BA9C68496D16F0F92A0FFC027A906A70DAB8BA9CCA000019384FF8291FF2DA9C3
:20A56000FF6799D1D801000EFFE692A2EC2A88A22BABDE8140ABEE0E28AA000892AB72AA7C
:20A5700092AAFFC02FA906A70DAA8AA9C68596D46F1328AA000892AB72AA92AAFFC02FA924
:20A5800006A70DAA8AA992AB9385900191FFFF822DA9FF6799D492AB9C0127A9000EFFDCF1
:20A59000770077007700770086BEFF698BBE0006A0ABB2BDB600D000BE0783A48F00C90050
:20A5A000AABD5AC4B50F00A692A0FFC02DA9A8A9D8010DAC8BA9CCA7000FDF082DA993C933
:20A5B000FF6391FF9785A9A9EC1D92A2EC1B88A2D000D200DE81B51400A6B60892A272A742
:20A5C00092A7FFC080A9DA01A9A5A8A90DA71EA7CCA0000F2DA9D80893CFFF6391FF9785C6
:20A5D000A0AB86BE8BBE0006B2BDAABDA2BDFE0206A661795FDD93DCF3A7A3C406D4FF90BD
:20A5E000FFD4974106D456AA1AA8800056998EA9A9A11B41000061721B4107FF6169A3C561
:20A5F00006D5FF90FFD4974206D556AA1AA88000569986A9A9A31B420000615A1B4207FF33
:20A60000615D93419F4297A402001ED61EC628A500353AA9B2AB2B410FA26003A9A90FA3EC
:20A61000680BB2A9565500A38BA93AA9565400A28EA92841000106D6A3C656A01ED6A9A989
:20A6200094411EC63AA9B2AB56A08EA9A9A16103000DFFE30AA560020AA508A500092DA50F
:20A6300006D6A3C65652640356A00BA456908DC00200565700A3D300564000A3630418A859
:20A640007FFF0AA45699910F08A403FF65171BA407FF630E18A7800099A793A4FF93CBA725
:20A65000A9C61ED6FE8282BE86BE8BBE00065633CDA780001AA87FF06FF456336FF2B2BDCA
:20A66000AABDA2BDE20304BDE20305BDFE02BDA40F26761F0311BDA50F22594FC53082A92D
:20A670003E67BFA20F261BC2FFFFE2030442EC4392A15204EC03A2A9EC3E8AD2A8A9EC16BE
:20A68000D00A939243A8EF06DC8176739D63D00A93923100D400B600D008BE0018A8FFF78F
:20A69000A9E2A8D2C3F2C2926F03D00A939292A1D00A56B101A1BE0118A8FFF8CBA197926A
:20A6A00006A60FA3ED0302001E428F000100A8A90FA356C700048DC001000642ED17DB01C0
:20A6B000A2A976739DCEA8A9ED0D8AA21ED2DC0A1AC40400761F0311C5323E6728A9FFFFA8
:20A6C0006F208AA2DC0A1AC400080901761F0311D0081ED2560100A3C5321EE21E92DB817B
:20A6D000A2F23E67761F0311C5303E67761F03118F33A27DC532761F030BA83C3E679A00A7
:20A6E000FE82E2AF05BEE2AF04BE82BE86BE8BBE00063ABDB2BDAABDA2BDFE022901BFA9A2
:20A6F0000F12FF58615B5CA8917F08A800801E4293A4FFD65CA8BFA90F1661675DA8917FF8
:20A7000008A8008059A858A993A5FFD65DA893A471A518A8010097A618A400FF18A500FF33
:20A71000DC7F92A49EA596A7644D08A9FF01623E93A192A0FF3659A858A90642FF35F60EF9
:20A720001FA15BA901A3F60A1FA1562D04A22DA336A0FF40F60B1FA1FF339B00FF30FF54D3
:20A730000CA295A3FF4008A70001F61FFF770920FF4008A70001F61FFF77FF5A92A76522ED
:20A7400008A9FF016313A9A9FF46917F5BA85AA925A695A7FF960CA295A3BDA90F12FE829C
:20A7500082BE86BE8BBE8EBE00069B00FF5708A8FF7FFF5A93A660F228A8800071AA92AB1F
:20A760006FEDFF2000006FEAFF5A93A418A80100FF965CA8A9A908A8FF7F1CA88000CBA4E8
:20A770006FDDB2BDAABDA2BDFE0206A661715FDD93DCF3A7A3C406D4FF90FFD4974106D430
:20A7800056AA1AA880008EA9A9A11B410000616B1B4107FF6162A3C506D5FF90FFD497422B
:20A7900006D556AA1AA8800086A9A9A31B420000615A1B4207FF61519341954297A4563375
:20A7A000A2AC564700A1A9A9560500A0565300ABB2AC560500A2565300AB562800A99B00FB
:20A7B000565CB2AC564700A2565300AB3AAC564700A3565300AB560500A2565300AB1EC637
:20A7C000562800A99B00564700A2565300AB1ED6A3C6630356900AA48DC00200565700A32E
:20A7D000D300564000A3630418A87FFF0AA45699910F08A4FC0165171BA407FF630E18A761
:20A7E000800099A793A4FF93CBA7A9C61ED6FE8282BE86BE8BBE00065633CDA780001AA869
:20A7F0007FF06FF456336FF2B2BD8BA488C11BA6FFFFEC1BD00A5D91B60045A5EF0FA3D106
:20A80000A9A9EC0C5CAB93E19FA4EC0892A6A9A47673993780A9D00A5D9192A756C30009B2
:20A810001AA50400D00A7D9128A9FFFF6F0C06D1D00846A51EE11E91EF0518A5FFCFD00A92
:20A820007D919A008BBE0006B2BDAABDA2BDFE02A8A98BA4ED2D761F0311C5303E67761F7A
:20A83000030C2B41920056C5001F8D80C340D1001BC2FFFFEC10761F0311C5303E678AA29A
:20A840007673A7F4761F03115BA9C5323E679241CAA39641D901761F030C92A1DA0C540029
:20A8500056C4FFE8761F0311C5323E676F0E761F0311C5303E678AA17673A7F4761F03118A
:20A8600059A9C5323E6779419241FE8282BE86BE8BBE0006B2BDFE02E8021589E80B90C11F
:20A87000E6940008AD1456C50009761F0311E803FC0056BF02346F54E5A0AD1456C3000C58
:20A88000E801FDC1E80D51D9E70000097700E8AFC0096F0BE801FDC1E80D51D9E7000009FB
:20A890007700E88FC0097700E68C000977007700BFA10F163B0185A1BDA90F1677007700B1
:20A8A000E801F98BE805CAF2E6890009E80C0003E700005BE80C041AE7518652E801DC41A9
:20A8B000E801EA60E720009AE80A9841E7000093E80DFAD8E70000C9E70000C0E88FA00B2F
:20A8C000E88FC001E70000D07700E72000097673A6E99A01E88FC00094A17673AB73FE82FC
:20A8D0008BBE0006B2BDFE028BA41BC1FFFFEC09D00A889144A6EF071AA60400D00A7E912C
:20A8E0009A006F2947A6EF07D50202007673AB36D00A889145A6B600EE0846A6EF0693A6FC
:20A8F000D00A512088A8979106D1ED0E42A6EE0C92A6768001009007D5008AA1964106A6A8
:20A900007673A65F80A99A00C4F1D00893A756B101A9C291FE828BBE0006FE021BC4FFFF0F
:20A91000EC09D00A889445A6EF071AA60400D00A7E949A006F1D44A6B600EE0846A6EF060E
:20A9200093A6D00A511088A8979406D4ED0D42A6EE0B92A6768001009007D500964106A675
:20A930007673A65F80A99A0093A756B101A9FE820006FE02E6950000E5A0AD14ED04E8014A
:20A94000FC006F57E801FE49E801F512E8087ED9E7100009E80FCC1AE70000517700E88FCB
:20A95000C0097700E68C000977003B01BFA90F1685A9BDA90F167700770077007700E689E8
:20A96000000A7700E8AFC012E801D3E9E8501253E80D5111E7518089E805CA7BE720004199
:20A97000E801B172E7000048E80CE2DAE7000012E80D9113E710009BE801E042E70000C303
:20A98000E80C39F2E710009BE805F152E70000C3E80D5522E71000D27700E70000807700A2
:20A99000E700004040A9E7100040EF03E6AF0000FE820006B2BDAABDA2BDFE0286A45BC2D7
:20A9A000D00ACC9210001BA3FFFF9641EC057673A7F45200EC0428A9FFFF6F2CD00A4392EC
:20A9B000EF098AD2DC8176739D638AA2DC0A18C4FFF70200B600BE001EF292C2C3D2C2E2F6
:20A9C00076739AA959A928C2FFFF9241EC12761F0311C5303E673B018F00C3C0560304A3FF
:20A9D000560100A47673AEBB761F0311C5323E6792A1FE8282BE86BE8BBE0006761F0311A6
:20A9E000B2BDC530AABD86A43E67761F0311C5303E678AA27673A99A761F031159A9C53280
:20A9F0003E67761F0311C5323E6792A186BE8BBE0006FE02E5A0E801F511AD14E80FCC1986
:20AA0000E6950000E70000097700E88FC009BE00E68C00093B0156B401A6BFA90F16CDA9EB
:20AA10000001F3A685A9BDA90F167700770077007700E6890009E801D3EAE850124BE80D4F
:20AA20005112E7518051E801B172E7200041E805CA7BE7000048E80CE2DAE7000012E80D57
:20AA30009113E710009BE801E042E70000C3E80C39F2E710009BE805F152E70000C3E80D9B
:20AA40005522E71000D27700E70000807700E700004092A6E7100040EC03E6AF0000FE82C7
:20AA50000006B2BDAABDFE02761F0311C53059A986A43E678AA27673A8D25200ED05761F33
:20AA60000311C5326F31D00A929290075204EC1B06E20FF256C800088AA27673A7F4520028
:20AA7000ED1D06E28AA9D00A09011EE279C44192EF1F92A1520AED1C8AA27673A7F4520005
:20AA8000ED0D6F165CAD92C279419B01DC815CA4767399371BA9FFFFED0B761F0311DA0A27
:20AA9000C5321AC204003E6728A9FFFF6F06761F0311C5323E6792A1FE8286BE8BBE00065B
:20AAA0008F00C34C7673AA5100068F73AAB5A0C4DC0A2BD48F40C5C8A0E492F496DC000686
:20AAB0003B0183A4C584DD0A762085C5C4C4AEC656C5003776B3AABEC28C000685C5C4C40E
:20AAC000AEC656C3002E76B3AAC7C28C00060AD585D5AECDED252BD585DDEC1A0BDDDD04D6
:20AAD000C4C5DE01C2C5DE8128A000C8C58492C777B696BBC58492C777B696BBC58492C7A6
:20AAE00077B696BBC58492C777B696BB00067680C5C8C2E576B3AAB5C28C92F596DD0006B2
:20AAF00028AD0450FF69561F5616561AE61002002940761F00002902761B762228A9AEBEDD
:20AB000028A800330901611B76F3AEBE29046F0F9B0024A9DF016C04290424A8DF011EA6D7
:20AB1000F7A1248606A781A109011EA724A96303FF5C3B0459A9DF010009FFEC761A28A941
:20AB2000FFFF28A8FFFF0901610E76FFFFFF6F06DF01C3BD1EA73E67C5BE24A9DF0124A822
:20AB3000FF5860F77673ADBF7673ADDA761F0311B2BDC530AABD59A586A4A2BD82A93E67C7
:20AB40001BC2FFFFEC2192A15201ED0DD00A4492EF0A06E2EC08D008C492564100A6A2A952
:20AB500003A682A98AA27673A7F483A25CC2A2A9DD0A18C5F5FF5DA176739A8F1EA6020045
:20AB600019010FA6ED08761F0311C5323E6728A9FFFF6F06761F0311C5323E679A0082BE69
:20AB700086BE8BBE0006FE045200E2030044EC2EE5A0AD14EC2B3B0185A91EA69243FFA696
:20AB800090FF80A906A681A71EA656C5001B02FE0FA656C30010E5A0761F0311AD1456BF4D
:20AB9000023456C40005E803FC006F0CE807FC006F0992A61843807F560307A998436F04A2
:20ABA000E590E2030044E2AF0044FE8400067673AA5100067673A3EF0006B2BDFE08761F25
:20ABB0000311064EC5301E483E67761F030D7680C34C1B0CFFFFED08761F0311C5323E6714
:20ABC00028A9FFFF6F16C24276F3ABA75CAD5DAD76B3ABAAC344DC88DD8EC2465CA45DA5F1
:20ABD00076738B01761F031159A9C5323E6792A1FE888BBE00068F73B3EA2BAC3B016F0977
:20ABE000350ADC0194A79CD080C42DA96F18DC0180C428AB000192A772ABA0A981AB1EA66D
:20ABF00043C6EEF692A7522DEC05522B2BABED066F0328AB0001DC0180C43B0128AA0001F3
:20AC000092A772AAA0A981AA1EA642C6EEDA92ABEC0492ACFF5C2DA992AC0006B2BDFE1674
:20AC10005DADBE00FF58DD835DA556B401A63B018EA92BC5020A1E423AA900F3AC75B60A6C
:20AC200085A9FF569C30968D3AA9C34200F3AC668EA9FF58EDF092A6EC0356BF2D8D88AD1F
:20AC3000DE960EA603A58BA909147673AD3092A1FE969C138BBE000606D428A700010FD5CA
:20AC400056B202A756B400A7600806C40FC556B602A756B800A7611906D4FF901BA8FFE09D
:20AC5000680C06D5FF901BA8FFE0680706D4FFDE92DDFFCE9EA800060BA73B0185DC92A72E
:20AC6000CFDD6302FF5C00069A00000629022904565FFF5A0642565F1E420200F61F56177B
:20AC7000004206AB56322902762029022904565FFF5A0642FF561E420200F61F561700425F
:20AC8000563229027620FF5A0200F61F56170042A9A97620FF5A0200F61F561700427620AF
:20AC90005EDC06D4A3C456A0569497A456AF56900980630418A87FFF0AA4569E93A408A86C
:20ACA000FC80641053FF620856A618A68000CBA6BDA90F120006CDA680001AA87F809A0062
:20ACB0006FF802006FF65EDCA3C406D4FF90FFD497A506D456AA1AA8800008A5FC01641360
:20ACC0009A0F9EA565092DA9FF6392A81BA600006302FF5C000628A97FFF93A663FC28A969
:20ACD00080006FF99A006FF75EDCA3C406D4FF90FFD497A506D456AA1AA8800008A5FC019D
:20ACE00064112FA89B1F9FA565092DA893AA56221BA600006302FF540006560200A6FF573F
:20ACF0006FFC02006FFAFF581EA6EC1CC5A68EA4DF8192C59680EC080200DF81DD01DE814E
:20AD000019010FA7EDF7C5A683A602010FA7DD8156C70009DD810200DD812B8019010FA577
:20AD1000EDFB000628ACFFFF0F426009A9A90F4456B100AC56B601AC92AC762056B100AC11
