:020000040032C8
:20000000761BFFF00005ABBDA8BDA0BDC2BDC3BDE20000BDE20300BDE20301BDE20302BDAA
:20001000E20303BDE20304BDE6300600FE02FF69294256160201761F03005601003292066E
:20002000ED0BE590761F0304E20300000200761F03001E326F0E5201ED08761F0302062063
:20003000761F03041E006F05062E761F03041E00761F0304E2AF000AE2AF0100E7200008BC
:20004000E801BFF9E203000EE80ED201E6950000E6940008AD146433020156010008060284
:200050000F086632E2AF000AE2AF0100E6940001AD14640DE801BFF8E2AF010AE80ED20003
:20006000E71000407700E203000A6F0CE801BFF8E2AF010AE80ED200E72000087700E203F9
:20007000000AE2AF0206E2AF01040200E6970010E6960008E203000A1E086F0628A9FFFFCB
:2000800028A87FFF1E0C060A761F03021E00E2AF0002E2AF0100E7000009E2AF0004E7107F
:2000900000407700E2030004E811FC00AD146507E8AFE0007700E20300046F0AE815FC0045
:2000A000AD146306E88FE0007700E203000406041E08761F03009206ED21E590761F0305DF
:2000B000E20300000200761F01AC1E001A1A04008F000A29761F0305A80E761F0300020101
:2000C00056010022761F03010600761F03000F22670502001E2256BF010692065201ED0F8E
:2000D000020156010022761F03010602761F03000F22670502001E2256BF0206920656C1B0
:2000E00000DD761F03018A06D01CCC940020FFC48A06761F03059604060E07C41E080608F1
:2000F000630A761F03018A06761F030506E4560100086F11761F03018A06761F030506E444
:200100000F086709761F03018A06761F030506E456410008E2880108E2AF000AE70000080C
:200110007700E2030002E2C4000DE2AF0102E700000876738996761F0305D019E2AF010219
:20012000E2C4020D761F0301E70000898A06E7200008761F0305E2030000CC940400FFC9B4
:200130005201ED0F761F03018A068306D008761F030556BFF01006951E06DC1A1AC404008D
:20014000761F03018A06D019CC940800FFCA5201ED198A06D01C4394EE058A06D01C42946B
:20015000EF068A06D01C56BF0C946F0C8A06D0201B94FFFFEC078A06D020761F030592948B
:200160009605761F03050600761F03061E00761F01ACCC1C0020FFC4761F03060EA91E0203
:20017000E801FB309B00E2AF0100E80B3330E6940001AD1463029B01E801EE609A00E80ED4
:200180006668E6940001AD1465029A01CEA8EC0DE2AF0004E7200009E2AF000AE7000008B5
:200190007700E20300126F0306061E12E2AF000CE2AF0106E2AF020EE3004312E7000099A5
:2001A0007700E71000407700E2030012E831FC00E825FC00E203001206121E0606001E04AA
:2001B000E2840008E2AF0106E70000087700E68800007700E2030010761F002CE801CBF87C
:2001C000E2C40101E80FFEA8761F0300E7000041E2AF0038E7200009E801FB40E8500009DC
:2001D000E80DA1C8E7000040761F0301E203002C761F002CE801CBF8E2C40102E80FFEA82D
:2001E000761F0300E7000041E2AF0036E7200009E801FB40E8500009E80DA1C8E70000407E
:2001F000761F0301E203002E062C1E32E2AF002EE2AF012CE8500002E801F898E710008911
:20020000E80E69D0E70000407700E20300340632761F03021E24761F03010634761F030277
:200210001E26761F03009206ED07E590761F0302E20300286F0E5201ED06761F03020608DF
:200220001E286F07761F03090620761F03021E28E8020648E2AF0128E8087ED8E7000040FC
:200230007673A76C761F0302E203002EE8020648E2AF0128E8087ED8E70000407673A738DE
:20024000761F0302E2030030E2AF0130E2AF0226E2AF0024E300432EE70000997700E7107D
:2002500000407700E203002AE2AF0226E2AF0024E2AF012EE3004330E70000997700E72046
:2002600000087700E203002C761F030092155416ED4B761F0304060A761F03071E16761FF9
:2002700003050628761F03071E18E2AF0018E2AF0116E72000087700E2030024E2AF011AD7
:20028000E2AF0028E6940001AD14600CE2AF001EE2AF0124E7000008E2AF012AE7100040B6
:200290006F03E2AF002AE203002606261E2AE2AF0126E2AF0024E7100009E2AF001CE700A1
:2002A00000087700E2030028E2AF0220E2AF0122E6970010E6960008E203001A761F0300A3
:2002B00056BF01166F020A169206ED08E590761F0307E2030026E203002A5200ED07E590FB
:2002C000761F0308E20300006F105201ED08761F03020620761F03081E006F07761F03073F
:2002D000061A761F03081E00761F0302062C761F03081E02E2AF0002E2AF0100E720000870
:2002E0007700E203000EE2AF0104E2AF0012E6940001AD14600CE2AF0008E2AF010EE70093
:2002F0000008E2AF0114E71000406F03E2AF0014E203001006101E14E2AF0110E2AF000E74
:20030000E7100009E2AF0006E70000087700E2030012E2AF020AE2AF010CE6970010E696A5
:200310000008E2030004761F03009206ED08761F03020614761F03081E186F06E590761FAE
:200320000308E2030018761F0302062A761F03081E1AE2AF001AE2AF0118E7200008770038
:20033000E2030026E2AF011CE2AF002AE6940001AD14600CE2AF0020E2AF0126E700000839
:20034000E2AF012CE71000406F03E2AF002CE203002806281E2CE2AF0128E2AF0026E7108C
:200350000009E2AF001EE70000087700E203002AE2AF0222E2AF0124E6970010E6960008E4
:20036000E203001C061C761F03031E22761F03080604761F03031E24761F0302062E761F95
:2003700003031E26761F03020630761F03031E28E2AF0328E2AF0024E2AF0126E300422202
:20038000E70000997700E72000087700E203001CE2AF0222E2AF0024E2AF0128E30043266F
:20039000E70000997700E71000407700E203001EE801CBF8E801FB41761F002CE2C4020764
:2003A000E80FFEA8E7000080E80DA1C9E7000008761F0306E2030028761F03050616761FF2
:2003B00003061E2A761F03050618761F03061E2C761F0305061A761F03061E2EE801F55064
:2003C000E80D5558E2AF0128E70000407700E203003CE2AF002AE8500001E2AF002CE7204A
:2003D0000009E2AF002EE7200009E2AF003CE70000087700E2030032E2AF002CE8500001F5
:2003E000E2AF002AE7200009E2AF002EE7200009E2AF003CE70000087700E2030034923055
:2003F000ED0DE2AF0032E6AF0000E2030032E2AF0034E6AF0000E203003406321E38E2AFF2
:200400000034E2AF0132E8500002E801F898E7100089E80E69D0E70000407700E203003AC5
:20041000761F030092065202ED14761F0309E2AF0018E811F400AD14630CE801B938E2AF75
:200420000118E80E2D60E71000407700E2030018761F03010632761F03091E14761F030138
:200430000634761F03091E1A761F03060638761F03091E00761F0306063A761F03091E0C55
:20044000E2AF0202E2AF0400E3252304E2AF0108E327180AE3004206E70000997700E71064
:2004500000407700E2030008E2AF020EE2AF040CE3252310E2AF0112E327180AE300420670
:20046000E70000997700E71000407700E2030012E2AF0014E2AF0108E72000087700E20336
:200470000016E2AF0112E2AF001AE72000087700E203001CE2AF0122E2AF0222E2AF03186B
:20048000E2AF0016E6AF0009E850001BE6970010E6960008E70000187700E2030004E2AFC3
:200490000122E2AF0222E2AF0318E2AF001CE6AF0009E850001BE6970010E6960008E70032
:2004A00000187700E2030010E2AF0104E2AF0002E7200009E2AF001EE7000009E2AF00024D
:2004B000E71000407700E2030002E2AF000EE2AF0110E7200009E2AF001EE7000009E2AF16
:2004C000000EE71000407700E203000EE2AF0002E2AF010EE6AF00007673A61BE801F11110
:2004D000E80FCC19E70000087700E5A0AD146412761F0309E2AF0002E2AF010EE6AF0000A5
:2004E0007673A61BE801F111E80FCC19E70000086F14761F0309E2AF0002E2AF010EE6AFB0
:2004F00000007673A61BE801F111E80FCC19E70000087700E88FE000761F0309E203002018
:200500000620761F03051E24E801FAC89B00E2AF0124E80CCCD0E6940001AD1463029B010D
:20051000E801F0C89A00E80CCCD0E6940001AD1465029A01CEA8EC0DE2AF0026E72000098C
:20052000E2AF002CE70000087700E20300346F0306281E34E2AF002EE2AF0128E2AF023051
:20053000E3004334E70000997700E71000407700E2030034E831FC00E825FC00E20300345C
:2005400006341E2806241E26E284002AE2AF0128E70000087700E68800007700E203003201
:20055000761F0303061C761F03051E12761F0303061E761F03051E14E801FAE80614E80D99
:2005600091681E1CE2AF0114E2AF0212E84FC009E70000107700E71000407700E203001EDE
:20057000E2AF001CE2AF011EE72000087700E203002056BF0322E2AF001EE5A0AD146504EB
:2005800092229CFF6F0292229622E2AF0020E5A0AD1465029CFF9622E2AF001CE5A0AD148B
:2005900063039A079E2252019622EC035204ED13061E1E16E2AF0020E2AF011CE72000086E
:2005A0007700E2030018E2AF001EE6AF0000E203001A6F2A5202EC035205ED13E2AF0020A0
:2005B000E2AF011EE71000407700E2030016061C1E18E2AF001CE6AF0000E203001A6F14B6
:2005C00006201E16E2AF0020E6AF0000E2030018E2AF011EE2AF001CE71000407700E6AFDE
:2005D0000000E203001A0616761F03011E1C761F03050618761F03011E1E761F0305061AD0
:2005E000761F03011E20E2C40019E2AF011CE2C40219E7000008761F0303E71000808A105B
:2005F000E68E0000D009761F0301BFA90F129694E2C40019E2AF011EE2C40219E700000833
:20060000761F0303E71000808A12E68E0000D009761F0301BFA90F129694E2C40019E2AF43
:200610000120E2C40219E70000087700E7100080761F0303E68E00008A14D009BFA90F12FC
:200620009694761F0300E2AF002EE5A0AD146024761F0305E801EA60E2AF0128E80E666821
:20063000E6940001AD146509761F0306E2AF0028E811F400AD14631028A9E1C09BE4761F02
:2006400000301E1276738F147622761F00358F008743A820761A761F01A01A1C0001761F99
:20065000003356BF0421FE82E2AF04BEE2AF03BEE2AF02BEE2AF01BEE2AF00BEE28000BEE8
:20066000C5BEC4BE83BE8ABE87BE0003FFF176177602761BFFF0ABBDA8BDA0BDC2BDC3BD06
:20067000E20000BDE20300BDE20301BDE20302BDE20303BDE20304BDE6300600FE02294210
:2006800056160201761F030056010032FF2013880F326665761F002CE2C40401E801CBF8EC
:20069000761F0300E2AF0330E2AF0238E80FFEA8E307193AE7000051E70000C07700E710FC
:2006A00000407700E2030038E2AF0236E801CBF8E2AF0330E2AF013A761F002CE2C40402F4
:2006B000E80FFEA8E70000E3E7000051E70000C07700E7100040761F0300E2030036E2AFF2
:2006C000023CE801CBF8E2AF0330E2AF013A761F002CE2C40403E80FFEA8E70000E3E700E4
:2006D0000051E70000C07700E7100040761F0300E203003C761F002CE801CBF8E801FB4119
:2006E000E2C40207E80FFEA8E7000080E80DA1C9E7000008761F0306E2030028761F002C8D
:2006F000E801CBF8E801FB41E2C40207E80FFEA8E7000080E80DA1C9E7000008761F03067A
:20070000E2030028FF204E20761F03000F32671F761F0306E801F4C8E2AF0128E80CCCD053
:20071000E6940001AD1465130200761F03001E3228A9870028A80393761F00301E127622E0
:200720008F008000761F0035A820761A761F01A01A1C0001761F003356BF0421FE82E2AF08
:2007300004BEE2AF03BEE2AF02BEE2AF01BEE2AF00BEE28000BEC5BEC4BE83BE8ABE87BEB2
:20074000FFF176177602761BFFF00005ABBDA8BDA0BDC2BDC3BDE20000BDE20300BDE203D0
:2007500001BDE20302BDE20303BDE20304BDE6300600FE02FF6929425616761F0300E2AF58
:20076000002EE5A0AD14FFE100ACE801FCC0761F0302E80BD750E2030032E801E218E80F2F
:2007700018C8E2030034E80208F0E80B3330E2030036E8021B60E8091EB8E2030038761F3F
:2007800003000634761F03021E3AE2AF0134E2AF0032E6AF00007673A9D5761F0302E2AF7A
:20079000013AE70000087673A49B761F0302E203003CE2AF0136E2AF00387673A9D5761FAF
:2007A0000302E6CF0004E2AF0132E801FC007673A9D5761F0302E308013CE8CFE009770092
:2007B000E70000087700E203003E063C761F03091E0A761F0302063E761F03091E06E80109
:2007C000EAC8E80B8E58E2030018E801EEC0E80BE8F8E203001E761F0307E590E203002605
:2007D000E203002A761F0308E2030028E203002CE2030010E2030014761F03002B06020083
:2007E0001E22761F002CE801FB41E2C40207E801CBF8E80FFEA8E7000080E80DA1C9E7002E
:2007F0000008761F0306E2030028E801F4C8E2AF0128E80CCCD0E6940001AD14651128A9C4
:20080000870028A80393761F00301E1276738F587622761F00358F008000A820761A761FC8
:2008100001A01A1C0001761F003356BF0421FE82E2AF04BEE2AF03BEE2AF02BEE2AF01BE28
:20082000E2AF00BEE28000BEC5BEC4BE83BE8ABE87BE0003FFF1761776027622761F002A27
:200830001A000001CC06F0FF1AA905009606CC06FFF050059606CC07FFE0500896071A04F1
:1808400001FF1A0501FF761AF6077700FF690006190156C3FFFF0006D8
:020000040033C7
:208000006F121AC400106F0C1AC400016F091AC400026F061AC400086F031AC4000402018D
:20801000560100C5C4C592C6522B6208522BECF05220ECF45223ECEF0006522DECE6523098
:20802000ECE10006B2BDAABDA2BDFE0A8BA583C1865482A492C5522AEC1F5CADDC8AF60970
:208030002B8483C192C55230640E5CADDC8A523A630A0201560100C192C583C1968492C563
:20804000523063F6934AEC175CADDC8A7673A7D296CB8AC16F0F8AC2DC8192C4A8C2562A81
:2080500003CB6305FF5C1AC3000196CB8AC1DC01A8C192C4522EED2E8AC1DC01A8C192C4D7
:20806000522AEC205CADDC8AF6092B8483C192C55230640E5CADDC8A523A630A020156010A
:2080700000C192C583C1968492C5523063F6924AED032BD36F0F5CADDC8A7673A7D296D3C6
:208080006F098AC2DC8188C40201A8C27ED3560100C1FE8A82BE86BE8BBE000688DC92A6A6
:20809000527056C1009B56331EA7CCC407605220EC7E5240EC541BA90100EC321BA90200C0
:2080A000EC1592A6526F620C526F56C100815258EC7E5264EC1C5269EC1AFFEF008B52752C
:2080B000EC76527856C000866F7292A6526F620A526FEC6D5258EC6B5264EC095269EC072E
:2080C0006F785275EC645278ED746F618AC53B01DC8185C4A8C5568F568F1EA76F6A92A669
:2080D000526F620A526FEC0C5258EC0A5264EC135269EC116F5E5275EC035278ED5A40C504
:2080E000EF0C02048AC50901564100A4A8C5C5D4A3C46F4F40C5EEF602036FF592A6526F75
:2080F000620A526FEC0C5258EC0A5264EC145269EC126F3F5275EC035278ED3B40C5EE03F0
:2081000002016F0202028AC50901B600564100A4A8C56FDF40C5EE0302016F0202028AC525
:208110000901564100A4A8C506C46FB692A6526F620A526FEC0C5258EC0A5264ECA85269EB
:20812000ECA66F175275EC035278ED138AC52BAADC81A8C527C46F0C40C5EE0302016F02E9
:2081300002028AC50901564100A4A8C5A3C4B60006A70006FE048EA992A4A9A55208EC0453
:208140005210EC056F073AA956926F353AA956936F327680FFFFC2443AA92B422B4100F3D1
:20815000A9275200620927A50EABBE002BAAF60F1FA427A96F1F020019011E442B422B41ED
:208160003AA900F3A9275200620A3B0185A48AA90200F61F561700A402006F0B3B0185A4FA
:20817000568F568FA9441E42A0AB3AA976739E3F1EA606A6FE840006B2BDAABDA2BDE203D2
:2081800004BDE20305BDE20306BDE20307BDFE04565EBDA40F2A59A582A9565EBDAB0F265C
:208190005A55ED0783C4A0A919011EC456BF30C5565EA2A9E2AF04C4565EEC415CA1767377
:2081A000813A3B01BDA90F12A9A0A944BFAB0F2E85A1E2030042568F568FBDAB0F2E00F3B5
:2081B000AA0692A2A9A6BFAB0F26565D00A6A9A65258ED09563328AB0010A9A9A3A65657E1
:2081C00000A9A9A6BFA40F2A8AC406A676B3B108BFA50F223AABBFA30F12DC81BDA40F2243
:2081D000BFA40F2A560100A6565EBDAB0F26E20304C492C696C5A2A9565EEDC1BFA40F2204
:2081E0007673AAA7FE84E2AF07BE9CFFE2AF06BEE2AF05BEE2AF04BE82BE86BE8BBE000603
:2081F000B2BDAABDA2BDFE04A0AC82A48B4E92D38350640418C3FFEF6F0356BF01D392DBBC
:208200005258EC09526FEC095270EC05527856B00AA0ED04D0106F02D0087673808EA9A280
:208210003B01A94483A9BFAB0F12A04285D3568F568F00F3A9F6565E565EED0343C3EF4B40
:2082200088DB92A65264EC035269ED0D565EA0A9AAAB565E6308ABA4565856BF01C488DB9E
:20823000A9A283A9A0A97E418AA1AAAB5DA07673817C6F0783C18AA5DC81A8C156BF30C593
:208240009C0154D365F892DB5278EC055258EC035270ED1443C3EF1252708AC156B178A640
:20825000562A00A60201564100C17EC48AC1A8A919011EC156BF30C492DB526FED0C43C380
:20826000EF0A8AC192CC5230EC06A8A919011EC156BF30C4FE8482BE86BE8BBE0006B2BDD1
:20827000AABDA2BDE20304BDFE125BA9C5C5A85206D58B60865E5CAD8352DC86C3461E4495
:2082800056BF30C58F73B12C7673A860E2AF04527700BFA60F229B00DE01BDA60F227B4F38
:20829000520056B401A892A897C1BFA30F22EC0788AD5CADDE86DC867673AA965CAD8F7379
:2082A000B130DC867673A860D1005200651288AD5CAD8F73B134DE86DC867673A31A5CAD56
:2082B0008F73B130DC867673A860D901520062F00A4F6F0D56BF30C46F6488AD5CAD8F7309
:2082C000B134DE86DC867673A3A5D9815CAD8F73B12CDC867673A8605200610D5CAD8F7362
:2082D000B138DC867673A8609B00520056B401A85300EDE45CADDC867673A8F68AA3767386
:2082E000A8343B0188A9A2AB85A61EA792A6934F94A1565700A796C2A9A355A665299FA6E3
:2082F000974F924F652A9CFF59A95CADDC867673A8F688ADDE8E7673A96D5DAD88AD5CADA1
:20830000DD8EDE8ADC867673AA3B5CAD88AD8F73B134DC8ADE867673A3A55CADDC867673E6
:20831000A8B49B3095A997830009FFE16F068252854F560100A3DB01928B5235640F8AA3AE
:20832000928C9C010AC4523A639606520FA4ED06DB812BC38A520AC26F04BFA40F222BC34A
:20833000FE92E2AF04BE82BE86BE8BBE0006B2BDAABDA2BDFE0252005BA859A986A4650458
:208340003B0185A16F04FF5C3B0185A9568F56BF6441D50A568F7673817C92A1520A630E3A
:208350001BA1FFF665078AC2A8A919011EC256BF30C492A16303BE2D6F02BE2B8AC2020123
:20836000564100C27EC48AC2FE82A8A919011EC27BC482BE86BE8BBE0006B2BDAABDA2BD04
:20837000FE0452005BA9D2008BA59741A844650D8A447673AAA754A36408864492A33B01B7
:2083800085A9560100A2DA819241EC0F8AC1A8A919011EC156BF2EC46F088AC1DB81A8A982
:2083900019011EC156BF30C48A447673AAA754A364F592A3651106440FA26614C4C106C107
:2083A0008AA619011EC11EA692C2DA8196C406440FA269F66F078AC1A8A919011EC156BF4D
:2083B00030C4FE8482BE86BE8BBE0006B2BDAABDA2BDE20304BD5AADDA8CFE6EC4D48BA5E8
:2083C00006C41E4AC24882C292D1EC075200630856BF06D19A066F0456BF01D19A0180AD5C
:2083D00088AD5DAD5CADDF86DE85C342DD8ADCEEC2447673826F9246D500BDA40F221BA964
:2083E000FFFD640C92D1544663159246520264069CFFDD015202964663FC520062059C01A8
:2083F000DD81964665FD93D992A58AA39DFE76738337BFA40F227673AAA79CFF2BAB5CA97F
:208400005446641E9E463B0188A992A4640ABFA50F2285A4560100A593C55330EC036F0652
:208410009B3092ABED0343C1EF08C5C383A728AB0001DD81A0C397C7DC81000EFFE892C10F
:208420009B009008CAAB56B001A89246BFA40F2283A37673836DFEEEE2AF04BE82BE86BEB7
:208430008BBE0006B2BDAABDA2BDE20304BDFE125BA9C5C5A85206D58B60E2AF045E5CADA8
:208440008352DC86C3461E4456BF30C58F73B12C7673A86086529B007B4F520056B401A85E
:2084500092A8DA0197C182A2EC0788AD5CADDE86DC867673AA965CAD8F73B130DC86767324
:20846000A860D1005200651288AD5CAD8F73B134DE86DC867673A31A5CAD8F73B130DC867B
:208470007673A860D901520062F00A4F6F0D56BF30C46F5C88AD5CAD8F73B134DE86DC86E9
:208480007673A3A5D9815CAD8F73B12CDC867673A8605200610D5CAD8F73B138DC86767317
:20849000A8609B00520056B401A85300EDE45CADDC867673A8F68AA37673A8343B01A2AB93
:2084A00085A9BFA40F221EA693A995A1565700A6924FA9A397C494A1964F65249CFF59A9A9
:2084B0005CADDC867673A8F688ADDE8E7673A96D5DAD88AD5CADDD8EDE8ADC867673AA3BCF
:2084C0005CAD88AD8F73B134DC8ADE867673A3A55CADDC867673A8B49B3095A997830009A0
:2084D000FFE1928B5235640A8AA3928C9C010AC4523A639E06520FA4EC048AA22BC36F0BC8
:2084E00006520FA368032BC26F022BC3BFA40F220AC48A52FE92E2AF04BE82BE86BE8BBECD
:2084F0000006B2BDAABDA2BD5BA886A495A99DFFE20304BD59A8BDA50F227673AAA7DB815A
:2085000080A993A3BFA40F22641A8EC488A33B0193A1640492A754A1620428AB00306F0689
:2085100085A183A2560100A527C506C483A0D98119011EC48EA93FC5000EFFECE2AF04BE4E
:2085200082BE86BE8BBE0006B2BDAABDA2BDE20304BDE20305BD5AADDA8E08AD02088BA588
:2085300080AD06C4C4D45DADDF865CADDD8A1E4AC24888AD82C2DE8592D156B406D156B421
:2085400006A908A4FDF8E2AF04C3C342C24476738432924693D1BDA40F2683A3767384F173
:20855000BFA70F22BE0106C30FA7ED0443C156BC00A6924693A6BFA40F2683A37673836DE1
:2085600008ADFDF8E2AF05BEE2AF04BE82BE86BE8BBE0006B2BDAABDA2BDE20304BDE20317
:2085700005BD5AADDA8EFE7082A5C4D4D00F06C41E4AC24892D39692E2AF04C26306D00F46
:2085800056BF06D3289200065CAD8F73B13CDC8A7673A860D1005200633A5CAD8F73B14022
:20859000DC8A7673A860520065125CAD8F73B12CDC8A7673A860520061415CAD8F73B13884
:2085A000DC8A7673A860520064086F183B013100FF2FFFE0A94A1E4888AD5CAD8F73B13427
:2085B000DE8ADC8A7673A3A55CAD8F73B138DC8A7673A860D981520064F05CAD8F73B13471
:2085C000DC8A7673A860520063086F1831009A0028A87FF0A94A1E4888AD5CAD8F73B13478
:2085D000DE8ADC8A7673A31A5CAD8F73B134DC8A7673A860D901520063F080AD88AD5DADE5
:2085E0005CADDF86D00FDE85C342DD8ADCEEC2449292767384329246BDA40F265202ED0B12
:2085F0000B467673AAA7BFA40F26D9011901560100A42BC493DB92A1BFA40F227673833792
:2086000093D39246BFA40F26BFA50F22767384F1D101BFA40F267673AAA75446ED0443C35C
:2086100056BC00A1924693A1BFA40F26BFA50F227673836DFEF0E2AF05BEE2AF04BE82BEB0
:2086200086BE8BBE0006B2BDAABDA2BDE20304BDFE0682A4BDA50F2293DB86525CA88354EE
:2086300092A49C9F52196602DCA092A4D10054A856B101A147C3EE1240C5EE0302016F024A
:2086400002028AC588AD0901DE86564100A4A8C5E2AF00C47673A9516F1040C5EE030201CC
:208650006F0202028AC50901564100A4A8C58AC4C4D406C41E46C2445CAD5DADDC86DD86A2
:208660007673A8605200FFE000A25CAD8F73B13CDC867673A860520061435CAD8F73B140F9
:20867000DC867673A8605200613B5CAD8F73B12CDC867673A8605200630B88ADBFA50F22E4
:208680005CADDE86DC8656BF01C57673AA9692DB5265620B5265EC1D5245EC1B5246EC1282
:208690005247EC08FFEF00935266EC0C526756C0008E5CADAA4283A3DC86767383B6FFEF22
:2086A00000865CADAA4283A3DC86767385246F7E5CADAA4283A3DC867673856A6F775CADF4
:2086B0008F73B12CDC867673A8605200642892A1EC039A466F029A668AC283A4DD81A0C2F4
:2086C00096C492A1EC039A4E6F029A6E8AC2DC81A8C296C592A156B049A656B169A602010E
:2086D000564100C27EC48AC2A8A919011EC256BF2BC4BFA40F2256BF03C46F4892A1EC030B
:2086E0009A466F029A668AC283A4DD81A0C296C492A1EC039A4E6F029A6E8AC2DC81A8C206
:2086F00096C592A156B049A656B169A60201564100C27EC48AC2A8A919011EC256BF2DC496
:20870000BFA40F2256BF04C46F2192A1EC039A4E6F029A6E8AC283A4DD81A0C296C492A115
:20871000EC039A416F029A618AC2DC81A8C296C592A156B04EA656B16EA60201564100C201
:208720007EC4BFA40F2256BF02C4FE86E2AF04BE82BE86BE8BBE0006B2BDAABDA2BDE203C4
:2087300004BDFE0C82A48BA5A84CA2A98658D5208F0001FD2B46560100A4BDA40F222B45FB
:20874000562100C907AC8AA3E20304481E4CFF2001FE7673AA568F0001FC8348A2A9C44CA5
:208750002B4A2B492BC5560100A4C24C92D9A848526762135265632E5258620A5258EC208A
:208760005225EC1693A99DBB530269246F3C5263EC2B5264EC156F375269EC1293A99D9113
:208770005301690E5275EC0C5278EC0A6F2C8F73B12A8AA37673AAAF9A01FFEF00AD5CAD79
:208780005DADDC88A842DD86AA448AA1767381F06F195CAD5DADDC88A842DD85AA448AA147
:20879000767386236F0F83C29B00DD8192C5A0C296C4520056B101A8DC819749A84818C160
:2087A000FFFD92D95275EC2D526FEC2B5278EC295258EC275270EC259245EC055201ED2102
:2087B00056BF014693C1CCA80002964A9246ED0741A8EF0B8A4856BF2BC46F048A4856BFC4
:2087C0002DC40201564100489246ED0B924AED0942C1EF078A4802015641004856BF20C47E
:2087D00040C1EE0EBFA90F223B0103481EA685C90FA66406064C03A6090186A96F0286A36D
:2087E00083489A0028A801FE8AA2DD017673AA499249A848EC058A482BC4DC01A848C44809
:2087F000064C0FA6680B8A48064CD52003480901DC817673AA568A4C2BC444C1EF22A2A915
:208800000FA2EC25AAA9D5308AA303A37673AA5692D95278EC0F5258EC0D5270EC0B924A1A
:20881000CA46ED0342C1EF1392C296C356BF30C26F0E43C1EF0C92CA96CB56BF30CA6F07D1
:20882000AAA9D5208AA303A37673AA568AA37673AAA79449FE8CE2AF04BE82BE86BE8BBE46
:208830000006B2BDAABDA2BDE20304BDE20305BDFE0482A4C452BDA50F26E2AF0456865406
:2088400040C6EE0302016F0202028AC60901564100A4A8C606C41E44EC4B59D392A1640C74
:208850008A447673AAA73B011EA692A185A90FA6670379426F058A447673AAA7964292CB14
:208860009342567200A872C2964154A8650F40C3EE0D9EA8650B9CFF5AA9BFA70F229A2095
:20887000BFA40F263E67000AFFFA9242650E8B449CFF5AA9D981D901BFA70F2292C1BFA473
:208880000F263E67000AFFF99342924154A8651640C3EF149EA865129CFF5AA9BFA70F22E5
:208890009A20BFA40F263E67000AFFFA6F07BFA70F229A00BFA40F263E67FE84E2AF05BE14
:2088A000E2AF04BE82BE86BE8BBE0006B2BDAABDA2BDE20304BDE20305BDE20306BD5AAD61
:2088B000DA9408AD020E82A4A048E2AF06C2E2AF04D2E2AF05E28AC38BC37673AAA7D01476
:2088C00007A11E92D0142B4906920FA1FFE900C38AC32B4E2B4B2B4D284CFFFF92C4522502
:2088D000EC12520056C100B70201BFA70F22560100C392C4BFA40F263E678AC30A4992C42D
:2088E0005225EDF002015CAD560100C3DC8E83A3767380005DAD5CADDD88DC8EA04283A31B
:2088F000767380228AC392C4524CEC1D5268EC0F526CED1F8AC3DC01A8C392C4526CEC047B
:208900001A4E00406F161A4E01006F0F8AC3DC01A8C392C45268EC041A4E00206F0A1A4E45
:2089100002006F031A4E008006C309018AA91EC30201560100C392C4964B526EEC26527319
:20892000EC1588AD5CAD5DADDE8808A4FDF4C242DD8E7673872C5CADBFA70F2A08A4FDF49B
:20893000BFA50F263E6772496F4F88AD5DAD5CADDE88DD89C242DC8EA044E2030446BFA577
:208940000F26767388316F40CC4E07605220EC305240EC201BA90100EC0A1BA90200EC0473
:208950004048EE2A6F274048EE276F244048EE0302016F0202020901564100488A483B01B9
:20896000B2AB85498AC4568F568FA9A1A9C41ED46F1B4048EE0302016F02020209015641EF
:2089700000488A488AC43B0185491EC46F0D4048EE0302016F0202020901564100488A486B
:208980008AC4924996C4D014C4C306920FA6FFE6FF41924908ADFDF2E2AF06BEE2AF05BE4F
:20899000E2AF04BE82BE86BE8BBE0006FE06E20300445CADDC867673A989E5A0AD1463063F
:2089A000E2AF0046E8AFE0006F03E2AF0046FE860006E20304BDFE0276739C1576738EDA05
:2089B00076738EEE76738F0876739116767391F88F0080008F72084CA8428F3200007673C8
:2089C0009DB47640882D761F00308F0124F8A802761F00308F0249F0A80A28A9E1C09BE48E
:2089D000761F00301E12761F03008F338D7CA82C761F01BF1A0D00107622761F01BE1807C4
:2089E000FFFC1807FFCF1A0A01001A0A0400761F01BF1A0201001A020400761A761F030088
:2089F0002B19921952046711FF6928A9B9A89B6576408848761F01BF1A060100761F03007C
:208A00000A199219520468F1E8026878E2AF0134FF69E80868C0E7000008E8020001767306
:208A1000A9D5E68E00007700761F0301BFA90F129618FFC09619281A01C2761F03038A1065
:208A200018C4FFCF8A1218C4FFCF8A1418C4FFCF8A101AC400048A121AC400048A141AC488
:208A300000048A10761F03019218761F030396EC8A12761F03019218761F030396EC8A148E
:208A4000761F03019218761F030396EC8A102BDC8A122BDC8A142BDC8A1028C4A00A8A1201
:208A500028C4A00A8A1428C4A00A8A102BFC8A122BFC8A142BFC8A10D00B56BF90948A12A9
:208A6000D00B56BF90948A14D00B56BF90948A10D00F56BF0B948A12D00F56BF0B948A1436
:208A7000D00F56BF0B94D0118A10761F0301921A761F03039694D0108A10761F0301921A0F
:208A8000761F03039694D0118A12761F0301921A761F03039694D0108A12761F0301921AC9
:208A9000761F03039694D0118A14761F0301921A761F03039694D0108A14761F0301921AB5
:208AA000761F030396948A10D01E2B948A12D01E2B948A14D01E2B9476228A10D0122B9443
:208AB0008A12D0122B948A14D0122B948A10D0142B948A12D0142B948A14D0142B94761ADD
:208AC000761F03078F00C004A8028F00C005A8048F00C017A8068F00C018A80856BF010AAF
:208AD00056BFC81056BF050BFF698F00C1C0C5123E67761F030456BF062056BF012156BF5D
:208AE000092256BF032356BF0F2456BF0E2556BF0C2656BF07277622FF69761F01C01A1C6A
:208AF000000876780080761A761F01C4FF698F0A2C2856BFE018A8A976408848761F01C473
:208B0000CD00F0FF761F03049230900F761F01C4FF87CAA896001A0000801818FFE11800F2
:208B1000FFEF1801F7FF1A0140001A0100401A010100CD03FFF0761F03049220900F761F35
:208B200001C4CAA89603CD03FF0F761F03049221900F761F01C4FF83CAA89603CD03F0FFF3
:208B3000761F03049222900F761F01C4FF87CAA89603CC030FFF88A9761F030456030C2319
:208B4000761F01C4CAA69603CD04FFF0761F03049224900F761F01C4CAA89604CD04FF0FBC
:208B5000761F03049225900F761F01C4FF83CAA89604CD04F0FF761F03049226900F761FE3
:208B600001C4FF87CAA89604CC040FFF761F030488A956030C27761F01C4CAA69604CC0235
:208B7000FFF050079602761A761F01A01A190800CC19F8FF1AA902009619CC1AFCFF1AA912
:208B80000100961A1A1C00041A190800CC19F8FF1AA902009619CC1AFCFF1AA90100961A0A
:208B90001A1C0004761F0305280C09C4FF69E801F400E2C4010C7673A9D5761F0305E2030C
:208BA000000A56BF040D02001E0E761F03018A06D0142B948A06D0152894821E8A06D01743
:208BB0002B948306D0108F16E360A8958A06D016761F0305289480755603020C761F030194
:208BC0008A060EA91EE4761F01AC1815FFFB761F0300E2AF0034E850E581E801FC0076731A
:208BD000A9D5761F0306E203000A761F0300E8020248E2AF0134E8500009E8087ED8E7007A
:208BE00000407700E85028007700E88FE001E801FC007673A9D5761F0306E203000CE8CFFD
:208BF000E0007700E203000E8F001158A808761F0300E2AF0034E850E581E801FC007673AA
:208C0000A9D5761F0305E203002C761F0300E8020248E2AF0134E8500009E8087ED8E70028
:208C100000407700E85028007700E88FE001E801FC007673A9D5761F0305E203002EE8CFAB
:208C2000E0007700E20300308F001158A82A761F0300E2AF0034E850E580761F0302E20385
:208C30000002761F030402011E02761F0302E801FCC0E80BD750E2030032E801E218E80F19
:208C400018C8E2030034E80208F0E80B3330E2030036E8021B60E8091EB8E2030038761FEA
:208C500003000634761F03021E3AE2AF0032E2AF0134E6AF00007673A9D5761F0302E2AF25
:208C6000013AE70000087673A49B761F0302E203003CE2AF0136E2AF00387673A9D5761F5A
:208C70000302E6CF0004E2AF0132E801FC007673A9D5761F0302E308013CE8CFE00977003D
:208C8000E70000087700E203003E063C761F03091E0A761F0302063E761F03091E06E801B4
:208C9000EAC8E80B8E58E2030018E801EEC0E80BE8F8E203001E761F0307E801FE00E20364
:208CA000001C761F0300E2C40115E2AF0034E7000008E801F261E80E66697673A9D5761F93
:208CB0000307E203001EE801FB98E8099998E2030020E805FB98E8099998E2030022761FB6
:208CC0000308E801FC00E203001EE801E919761F0300E80EB851E2AF00347673A9D5761F5E
:208CD0000308E2030020E801FA60E80E6668E2030022E805FA60E80E6668E2030024E80169
:208CE000FC00E2030006E801E919761F0300E80EB851E2AF00347673A9D5761F0308E2035A
:208CF0000008E801FA60E80E6668E203000AE805FA60E80E6668E203000C76738E34762227
:208D0000761F00358F008669A820761A761F00331A260001761F01A01A190008CC19FFF85D
:208D100050019619CC1AFFFC5001961A1A1C000176230004761AFF698F33AE64A8427673EE
:208D2000A7A68F33AE78A8427673A7A68F33AEB6A8427673A7A68F33AF34A8427673A7A6D3
:208D30008F33AF74A8427673A7A676739485767393DC767393F276739543761F03129A341D
:208D4000932776739551761F03129A35931876739551761F03129A36931876739551761F0E
:208D500003129A37931876739551761F03002B0A2B018F00C004761F0307A8028F00C005BA
:208D6000A8048F00C017A8068F00C018A80856BF010A56BFC81056BF190B8F00C1C0C512EF
:208D70003E679A0076738E7A29102920761F0300FF69C52C3E676FFB761F0030CC0480001C
:208D8000FFCE5201ED0E1A048000761F01A0CC160004FFC15201ED05761F030056BF010B40
:208D90008F338D96761F0300A82C0006761F0030CC0C8000FFCE5201ED0E1A0C80007673A5
:208DA0008FA1761F0300920B5201ED05761F01BF1A0604008F338DB0761F0300A82C00061F
:208DB000FE02761F0030CC148000FFCE5201ED761A148000761F01BF1A0601007673902C32
:208DC0006F1FE2C80002761F0306E28401087673A9D5761F0300E203001E920296006F169B
:208DD000E2C80003761F0306E28401087673A9D5761F0300E203001E920396006F07761F91
:208DE00003009201ECDF5201ECEC761F002CE801CBF8E801FB41E2C40207E80FFEA8E70022
:208DF0000080E80DA1C9E7000008761F0306E2030028E811F400AD146321E590761F0300AB
:208E0000E203002E2B002B0A9A34761F0312932776739551761F03129A35931876739551EB
:208E1000761F03129A36931876739551761F03129A379318767395516F11761F0300920AA5
:208E2000ED06E590E203002E2B006F08E2AF001EE84FE0007700E203002E8F338D7C761F65
:208E30000300A82CFE8200067622761F01A01A120020761F01A11A120020761F01A21A12C4
:208E40000020761F01A01A120100761F01A11A120100761F01A21A120100761F01A0CC14B0
:208E5000FFFC50029614CC14FFF350089614761F01A1CC14FFFC50029614CC14FFF35008FF
:208E60009614761F01A2CC14FFFC50029614CC14FFF350089614761A761F01A01A1700046A
:208E7000761F01A11A170004761F01A21A170004FF690006FE08964176F3B1525CADDC88E5
:208E8000F60524849241EC2B76222B429242520363243B015CAD56030142DC88560100A450
:208E90008AC4DC171AC400045CADDC8856030142560100A48AC4DC171AC400015CADDC880E
:208EA00056030142560100A48AC4DC121AC401000A429242520364DE761A6F2A76222B421B
:208EB0009242520363243B015CAD56030142DC88560100A48AC4DC171AC400045CADDC8822
:208EC00056030142560100A48AC4DC171AC400015CADDC8856030142560100A48AC4DC129B
:208ED00018C4FEFF0A429242520364DE761AFE88FF6900067622761F01BE1818FCFF1A1B22
:208EE000001018083FFF180BFF7F1A0D0080761A761F01BF1A0D0010FF6900067622761F05
:208EF00001BE1808F3FF1A0B00201806CFFF1A0A00401819FF3F1A1B0800761F01BF1A03DE
:208F000000201A0200401A0B0800761AFF6900067622761F01BE1816FFCF181AFFFB1A1C60
:208F10000004761AFF6900067622761F01A0CC0EFFFC5001960ECC0EFFF35004960E761F4E
:208F200001A1CC0EFFFC5001960ECC0EFFF35004960E761F01A2CC0EFFFC5001960ECC0E25
:208F3000FFF35004960E761AFF6900067622761F01A0CC0EFFFC5001960ECC0EFFF350087D
:208F4000960E761F01A1CC0EFFFC5001960ECC0EFFF35008960E761F01A2CC0EFFFC500146
:208F5000960ECC0EFFF35008960E761AFF6900067622761F01A0180EFFFC180EFFF3761FFB
:208F600001A1180EFFFC180EFFF3761F01A2180EFFFC180EFFF3761AFF690006FE02761F12
:208F7000030656BF021492147673918D761F002C92019641767391C7761F03069241FFA77D
:208F80009615924190FF9616761F002C92029641767391C7761F03069241FFA79617924114
:208F900090FF96188F00C194560301149C0176738FFF761F0300960F920F767391C7FE827F
:208FA0000006FE02761F0301E2AF002CE850E0007700E890C000761F0300E68E0000580921
:208FB0009A01BFA60F1294A08F00C28096097E949209523269432B092B4192415208630EC1
:208FC0003B018F00C0EA8541560100A492C4767391AA0A419241520864F4761F03032B3219
:208FD00056BF32339232767391AA761F03039233767391AA2B4192415232630E3B018F009C
:208FE000C2808541560100A492C4767391AA0A419241523264F456BF0B419241520F630EF4
:208FF0003B018F00C0EA8541560100A492C4767391AA0A419241520F64F4FE820006FE0650
:209000009643A8422844FFFF5200EC1E8A4292C490FFF2442B459245520867104044EE0551
:209010009244FFC096446F069244FFC096441C44A0010A459245520868F20B43020156016A
:2090200000429243EDE456030844CD44FF00FFD7CBA992A8FE860006761F002C9200761F9D
:2090300003009602920C54026704920C96026F06920D54026903920D9602761F01BF420844
:20904000EE21761F03002803025856BF010156BF010A9A34761F0312932376739551761F1B
:2090500003129A35931976739551761F03129A36931876739551761F03129A37931876739E
:2090600095519A248F00C48276739589761F031292025244ED21761F0300280303E856BFCB
:20907000010156BF010A9A34761F0312932376739551761F03129A35931A76739551761F37
:2090800003129A36931876739551761F03129A37931876739551761F03129202524CED2192
:20909000761F0300280305DC56BF010156BF010A9A34761F0312932376739551761F03123E
:2090A0009A35931B76739551761F03129A36931876739551761F03129A379318767395517B
:2090B000761F031292025254ED1E761F03129A34932276739551761F03129A3593197673A7
:2090C0009551761F03129A36931876739551761F03129A37931876739551761F03002B01FD
:2090D00056BF010A761F03129202525CED1E761F03129A34932276739551761F03129A35F4
:2090E000931976739551761F03129A36931876739551761F03129A37931876739551761F77
:2090F00003002B0156BF020A761F031292025264ED1D761F03129A34932776739551761F7C
:2091000003129A35931876739551761F03129A36931876739551761F03129A3793187673EE
:209110009551761F03002B0A2B0100067622761F01BE180DEFFF180DDFFF1A050300CC0961
:20912000FCFF1AA901009609CC09F3FF1AA904009609761A761F01C11811FFDF56BF07108A
:209130002B1256BF04131A1100201A1A8000CC1BFFE05010961B1A1100021A1100011A1A53
:2091400040001A1B002076228F339FD0761F0037A800761A761F00331A32000176230100FE
:20915000761F01C12B1C1A1A20001A1B2000FF6900067622761F01BE181DBFFF181D7FFFB8
:209160001A153000CC19CFFF1AA910009619CC193FFF1AA940009619761A761F01DD18313A
:20917000FFDF56BF07302B3256BF01331A3100201A3A8000CC3BFFE05010963B1A3100026C
:209180001A3100011A3A40001A3B00202B3C1A3A20001A3B2000FF690006FE0496410200E1
:209190001E448F0131286F07020107441E44A8A90F446808761F01C1CC140040FFC55201AC
:2091A000EDF48F013128A8A90F44680392419619FE840006FE04964102001E448F013128A6
:2091B0006F07020107441E44A8A90F446808761F01DDCC340040FFC55201EDF48F013128D1
:2091C000A8A90F44680392419639FE840006FE029641FFA77673918D92417673918DFE8278
:2091D0000006FE069745A84496412B466F089A0D7673918D9A0A7673918D0A4692415446D8
:2091E00062F76F068A449284A8447673918D8A4492C4EDF92B466F089A0D7673918D9A0A86
:2091F0007673918D0A469245544662F7FE860006FE0E2B4D8F7392328F33923776F39240A4
:2092000076B3925FA0429A028F739268A8448F33926FC346C248A04A8F739229A84C8F339B
:20921000B144767397B5964D5200ED128F00C34C8F73B150A8428F33B14A76739F658F001C
:20922000C34C56BF0441D50002007673A28EFE8E0006FE0497449643A84206421E429A0061
:20923000FE840006FE0296419A00FE820006FE069745A844964106441E449A00FE8600062C
:20924000FE069745A84496412B4692A89CFF53009645EC1388463B018A4485A61EA79A0195
:2092500094A6964606A7560100A492C47673918D93450B455300EDEF9245FE860006FE0627
:209260007D457C411E4406441E440200FE860006FE02A84206421E429A00FE820006FE0421
:20927000A044A84206421E4206441E449A00FE8400067622761F01BE180DFFFB180DFFF774
:209280001A0400C0CC08FFCF50209608CC08FF3F50809608761A761F01DD1811FFDF56BFA1
:2092900007102B1256BF0A131A1100201A1A8000CC1BFFE05008961B1A1100021A11000111
:2092A000761F01C11A1400011A140002181AFFDF761F01DD1A1A40002B1C1A1A20001A1B31
:2092B0002000FF690006FE04964102001E448F0131286F07020107441E44A8A90F446808B0
:2092C000761F01DDCC140040FFC55201EDF48F013128A8A90F44680392419619FE84000601
:2092D000761F030B92275426EC1958268F00C2E89294520F660858949A348F00C49893942B
:2092E00076739551761F030B9B140A26922600F3AA73962692275426EDE90006FE069643AD
:2092F000A8422B442B45544569098A425845929472440A459243544566F99244FE860006C9
:20930000761F030B92275426EC7858268F00C2E8929452AAED699226521066668826A8A9FF
:209310000DA68AA99A03767392EE9625182500FF58268F00C2E8D80392945425ED4E582670
:20932000D802929496245603082496245826D80192947224768003E88F00C4980E24F60F1E
:209330001FA658A99A34939476739551761F030BBE640E24F60F1FA69B0A00F3AA738F008E
:20934000C49858A99A35939476739551761F030BBE0A0E24F60F1FA69B0A00F3AA738F0040
:20935000C49858A99A36939476739551761F030B9B0A922400F3AA738F00C49858A99A370F
:20936000939476739551761F030B082600049226521468102B266F0E0A269B14922600F334
:20937000AA7396266F070A269B14922600F3AA73962692275426ED8A0006761F01DD181BD5
:20938000DFFF1A1B2000CC1B1F00FFC7520865FC761F030B2B272B268F00C2E86F0B761F85
:20939000030B5827761F01DD92179694761F030B0A27761F01DDCC1B1F00FFC7EDF1761F64
:2093A000030B922752046838922652146735761F030B58268F00C2E8929452AAED258826FA
:2093B000A8A90DA68AA99A03767392EE9625182500FF58268F00C2E8D80392945425ED0D3E
:2093C0005826D802929496245603082496245826D801929472246F100A269B14922600F3FA
:2093D000AA7396266F070A269B14922600F3AA739626521468CD00067622761F01BE181C0A
:2093E000FFFE181CFFFD1A1200031A12000CCC16FFFC50019616CC16FFF350049616761A9B
:2093F000FF690006FE02761F01E41809FFDFFF2001C076408848761F01E456BF0E0C56BF52
:209400002009880C28A9D18028A808F08F0186A0FF5AA8420200DE0188A6F61F561700A675
:20941000A9A900F3A88A28AC001F3B011EA6562207A6FF409CF69603880C28A808F028A916
:20942000D180FF5AA8420200DE0188A6F61F561700A6A9A900F3A88A3B011EA6562207A6C5
:20943000FF409CFB9604282060002821204076228F33AA1A761F0036A830761A76230080F1
:209440002910FF69FE820006FE04A842761F01E4CC090800FFCA5201ED0428A955556F2388
:20945000CC021000FFCB5201ED0428A910006F1BC542DF0C92C796072B436F0988430642C4
:209460000DA609131EA792C796080A438A42D00E9294544366F4C542DF0E92C7960528093A
:209470002E209A00FE840006FE02A842C542761F01E4DF0C92C79607C542DF0E92C7960538
:2094800028092C209A00FE820006FE027622761F01BF1A0A0001761F01BE1816FFFC1A1A6C
:209490000001761F01BF1A0C0001761F01BE1816FFF31A1A0002761A761F01BF1A0A00018B
:2094A0002B429242520A67050A429242520A68FD761F01BF1A0A00022B429242520A67053E
:2094B0000A429242520A68FD761F01BF1A0C00012B429242520A67050A429242520A68FD55
:2094C000761F01BF1A0C00022B429242520A67050A429242520A68FD761F01BF1A0A0001AB
:2094D0002B429242520A67050A429242520A68FD2B4192415209671D761F01BF1A0A0002F9
:2094E0002B429242520A67050A429242520A68FD761F01BF1A0C00022B429242520A6705FC
:2094F0000A429242520A68FD0A419241520968E5761F01BF1A0A00022B429242520A670531
:209500000A429242520A68FD761F01BF1A0C00012B429242520A67050A429242520A68FD04
:20951000761F01BF1A0C00022B429242520A67050A429242520A68FD761F01BF1A0A000259
:209520002B429242520A67050A429242520A68FD761F01BF1A0A00012B429242520A6705BE
:209530000A429242520A68FD761F01BF1A0C00022B429242520A67050A429242520A68FDD3
:20954000FE82FF690006761F031256BF11009A249300767395518F0493CFA8A97640884861
:209550000006FE0297429641761F031356BF0128924196269242962D8F00C4DA7673944448
:20956000761F031302001E3256BF01256F180201761F031356010032FF203A980F32670F4D
:2095700002001E3276739485761F03132B25761F01E41A0908002802FFFF6F05761F01E4D1
:209580004502EFE61A020020029476408848FE820006FE049641A844761F031356BF012823
:20959000924196268F00C4DA767394740200761F03131E3256BF03256F13FF203A98761FCC
:2095A00003130F32670D76739485761F03132B25761F01E41A0908002802FFFF6F05761F0D
:2095B00001E44502EFEB1A0200200200761F03131E3256BF04256F048A44920696C4761F56
:2095C00001E4CC211F00FFC7EDF8FF2001C076408848FE840006FE049742964192429643A2
:2095D000761F03125403EC459241ED0E768003E80E438F00C498F60F1FA658A99A3493949E
:2095E000767395516F0B3B018F00C4988541560100A49A3493C476739551BE640E43F60FCE
:2095F0001FA69B0A00F3AA738F00C49858A99A35939476739551BE0A0E43F60F1FA69B0AA8
:2096000000F3AA738F00C49858A99A3693947673955192439B0A00F3AA738F00C49858A912
:209610009A379394767395519243761F03129603FE840006520027A86413520A63113B012F
:209620008F40C542560302A9560100A506C5EC081EA6D01092D593ABC5963E67000628A975
:20963000FFFF0006B2BD8BA4AABDA2BD92C1EC138F00C580D230DC1882A483A17673AA8336
:209640005200ED038AA36F08DB180218DA988AA30FA269F4D40082BE86BE8BBE0006B2BD54
:20965000AABDA2BDFE0A9A3A82A48AC37673AA6286A4A8A9EC2083C392A25CAD3B019EA567
:2096600059A9DC89520856B208A192A185A97673A9333B015DAD5CAD92A1DD89DC8985A9D7
:20967000560100A52BC576739632A8A9EC04DA01AAC36F038F00C580FE8A82BE86BE8BBE19
:209680000006B2BDFE02761F030BC53EA8423E675CADDC827673964FD014C5948A423E673D
:20969000761F030B59A9C53C3E6792A1FE828BBE0006B2BDAABDFE04761F030BC53EA0420D
:2096A000A8443E675CADDC847673964F86A45CADDC827673964F83A2A8A90FA5EC08761FD0
:2096B000030BC53C3E6728A9FFFF6F0CD0168A44C59583423E67761F030B59A9C53C3E67D9
:2096C00092A1FE8486BE8BBE0006761F030BAABDC53E86A43E678AA276739632A8A9EC0844
:2096D000761F030BC53C2BC43E679A006F07761F030BC53C3E6728A9FFFF86BE000652007E
:2096E00027A86413520A63113B018F40C542560302A9560100A506C5EC081EA6D00E92D57A
:2096F00093ABC5963E67000628A9FFFF0006B2BDAABDA2BDFE04761F030BC53E59A9A84278
:209700003E67761F031579439201ED108F40C54ED40656BF0101B600DD040200C4A5DC8179
:2097100019010FA4DE84C3C6EDF88D80C54282A28F00C56ADB0C6F02DB04A8A90FA3ED0877
:20972000761F030BC53C3E6728A9FFFF6F4006C3EDF4761F030BA2A93B01C53E03A2FF41A6
:2097300082A93E675CADDC827673964FD0098BA44091EE22D00A92438A42C59193A33E677F
:2097400052009643641B3B01560302A3D009560100A29243B2C2419196D2EE04D9091AC121
:209750000001761F030BC53C3E67761F030BC53C3E6792A36F0C2843FFFF761F030BC53CA9
:209760003E67761F030BC53C3E679243FE8482BE86BE8BBE0006FF5A92A46413520A6311FB
:209770003B018F00C542560302A9560100A406C4EC08D0121EA65CD4C596A9A93E6700061C
:20978000020019010006B2BD520059A9AABD6414520A6312761F030BC53E3E678D80C542D5
:209790003B01560302A1560100A206C2ED08761F030BC53C3E6728A9FFFF6F158AA9D00C20
:2097A00092D2C5943E6759A91BA1FFFFEC078AC202001EC2DC0918C4FFFE761F030BC53C08
:2097B0003E6792A186BE8BBE0006B2BDAABDA2BDE20304BDE20305BDE20306BDE20307BD5B
:2097C000FE08761F030BC53E5BA9A848A362C460E2AF075EE2AF065CE2AF055A8A64BDA597
:2097D0000F22A944C246A8423E67761F03158B489200ED0D8F00C580D53056BF0100DC18D5
:2097E00002182BC4DD980FA5DC1869FB8AA176739632A8A9EC07761F030BC53C3E679A01DB
:2097F0006F368D80C5988F00C5C86F02DA18A8A90FA2ED08761F030BC53C3E6728A9FFFFBC
:209800006F2692C2EDF402088AA283A17673A933D116D0082B92D0097B92761F030B06460E
:20981000D00AE2030492D00CE2030592D00EE2030692D010E2030792D0121E92D014064412
:209820001E920642C53C1E9A3E679A00FE88E2AF07BEE2AF06BEE2AF05BEE2AF04BE82BE20
:2098300086BE8BBE0006761F030BB2BDC53EAABD59A95AA8A2BD82A43E671BA2010083A3F7
:2098400069038D80010092A18DC0C468FFC793A296CB79C37AD38AA392A2FFC796DB9AF3D8
:209850007673A200D5008AA37673A254761F03115929761F030BC53CB2A9761F0311FF3783
:209860000D28FF3F0EA88BA93E6792A182BE86BE8BBE0006761F030BB2BDC53EAABDA2BD05
:2098700082A43E678AA37673AAA78D80C4689C0193A99AF58AA283A37673A200D5008AA227
:209880007673A25459CA761F030BC53CB2A9FF370DC2FF3F0EA88BA93E6792A182BE86BE3E
:209890008BBE0006761F030BB2BDC53EAABD3E678D80C4689AF89B00D5008AA27673A20056
:2098A000D5008AA27673A254761F030BC53C88DA28AC001859D2761F031106A65ACA563BA1
:2098B0000D281EA6B2A9FF3F07A68BA93E67AAA9FF3707A186BE8BBE0006B2BDA2BDFE648C
:2098C000761F030BC53E82A58BA43E675CAD83A1DCE47673AAAF8AA17673AAA75CAD9C01AD
:2098D0003B01DCE459A983A385A1560100A47673AAAF8AA37673AAA78DC0C4685DAD94A1D2
:2098E0009C018AA3DDE493A99AF77673A200D5008AA37673A25459CB761F030BC53CB2A981
:2098F000FF370DC3FF3F0EA88BA93E6792A1FEE482BE8BBE0006B2BD761F030BAABDC53E65
:2099000059A95AA8A2BD82A4E20304BD3E671BA20100BDA30F2269038D80010092A18DC02A
:20991000C468FFC79B00D50096CB79C37AD38AA392A2FFC796DB9AF27673A200BFA50F22A7
:209920008AA37673A254761F03115929761F030BC53CB2A9761F0311FF370D28FF3F0EA8E9
:209930008BA93E6792A1E2AF04BE82BE86BE8BBE0006B2BD761F030BAABDC53E59A85AA965
:20994000A2BDE20304BDBDA40F223E678DC0C46892A1FFC796CB79C37AD392A2BFA40F22A7
:20995000FFC796DB7673AAA79C0193A99AF08AA3BFA50F227673A200D5008AA37673A254F5
:20996000761F03115A29761F030BC53CAAA9761F0311FF370D28FF3F0EA886A93E6792A2B4
:20997000640292A1E2AF04BE82BE86BE8BBE0006B2BD761F030BAABDC53E59A45AA5A2BD41
:20998000E20304BDBDA90F223E678DC0C46892A1FFC7290128AC001896CBBFA60F22D50091
:2099900079C37AF38AA306A6FF477ED396DB06A697E306A656229B0096EB92A2FFC796FB3C
:2099A0009AF47673A200D5008AA37673A254761F0311882B28AC0018592A06A6563B0D2870
:2099B000761F030BC53C761F03111EA65A29B2A9FF3F07A68BA93E67AAA9FF37E2AF04BE08
:2099C00007A182BE86BE8BBE0006761F030BB2BDC53EAABD86A4A2BD82A53E678AA2767326
:2099D000AAA78D40C4689C0193A99AF68AA183A27673A2008AA183A37673A254761F030B16
:2099E000C53C3E678AA37673AAA7FF58ED02D3008AA382BE86BE8BBE0006761F030BB2BD2F
:2099F000C53E59A9AABD3E678D80C46892A19B00FFC7D50079C28AA296CA9AF17673A200C7
:209A0000D5008AA27673A254761F03115929761F030BC53CB2A9761F0311FF370D28FF3FEA
:209A10000EA88BA93E6792A186BE8BBE0006761F030BB2BDC53EAABD3E678D80C4689AF9F4
:209A20009B00D5008AA27673A200D5008AA27673A254761F030BC53C88DA28AC001859D202
:209A3000761F031106A65ACA563B0D281EA6B2A9FF3F07A68BA93E67AAA9FF3707A186BE7F
:209A40008BBE0006B2BDA8A98BA4EC3E761F030BC53E3E67761F0311C422D982B2A983A1EA
:209A50000FA669068AA6C4D40FA666FD6F02D400C5C507A70902FF5A06A60FABED0806C6EA
:209A6000C4D6FF5407C509021EC5C5C5A8A9C2D5EC1003C409021EA6A0A90FA6EC03A0D4DA
:209A70006F0BC4D506A7FF5407C4C2D419026F07761F0311A02206A78AA5FF541EC4761FC0
:209A8000030BC53C3E678BBE0006761F030BC53E3E67761F03118F000400A8A9A8248F0090
:209A900003D040A4EF041901DC011E244024A822EF04020156410024761F030B8F7FFFFF45
:209AA000C53C0202761F0311A0D4A8262B2003241EC43E670006B2BDFF58AABD86A9ED036B
:209AB000D1006F4E92A2761F030B3B019001C53E88A9AAA981A686A93E67761F0311922087
:209AC000EC0376739A85761F0311D5008B226F0483A18AA18BD48F3FFFFFA8A90FA1ED0386
:209AD000D1006F2AC5C106A7FF541EA6AAA90FA662F009040FA6680DA0A9ED0606D1761F89
:209AE00003111E226F0406D18AA51ED4C2C16F13B2A907A28AA9AAA907A7DC0209021EC49F
:209AF000AAC1A0A9ED05761F0311A8226F02A8D506D11ED4D902761F030BC53C3E678AA137
:209B000086BE8BBE0006B2BDAABDA2BDFE02520059A9A842ED078A4276739A42D400FFEFF8
:209B100000A80642ED0892A13B0185A976739AABFFEF009F864292A1761F030B9001C53EC6
:209B200072A10642DA8207C282A93E673B0192A185A9C4C21EA792A185A9FF5A06A60FABCD
:209B30006311761F0311062607240FA3696D8AC3A8A9626AFF58630606A603A409020FABD7
:209B40006863761F03118A22AAA90FA469068EA48AD40FA466FD6F02D000A3C2064207AB2A
:209B50000FA4EC1E0204565D00A70FAB664788AB92A13B01A34285A98BA99A029EA65657FB
:209B600000A1A9A585A91EC5A8D5C3C23AA9ED05761F0311A0226F328AA0A0D46F2FC4C43E
:209B70000202565D00A6565D00A70FAB6318C44292A13B0185A9560100A692ABA3D4FF5C3A
:209B80008AA685A91EC4A9D4C3C23AA9ED05761F0311A8226F1383A0A8D56F103AA9ED06C4
:209B900006D4761F03111E226F0406D48AA01ED406A6FF5407C209021EC2761F030BC53C32
:209BA0003E678A426F15761F030BC53C3E6792A13B0185A976739AAB8BA4A8A9EC08834263
:209BB00006C27673A8D58A4276739A428AA1FE8282BE86BE8BBE0006761F030BB2BDC53E43
:209BC0003E67D100761F031192208322ED108F3FFFFFA8A90FA5EC0BC4C53B0185A10FA6AA
:209BD000650259A683D5A8A90FA5EDF7761F030BC53C3E6792A1FF5C8BBE0006761F030B05
:209BE000B2BDC53E3E67D100761F031192208322ED0D8F3FFFFFA8A90FA5EC0892A19EC528
:209BF00083D559A9A8A90FA5EDFA761F030BC53C3E6792A18BBE0006D4000006B2BDC446F1
:209C00001EAC564400A68BA976739AABC4A4A8A9EC0AB2A9EC08D9810200D9812B8419015B
:209C10000FA1EDFB8BBE8AA6000676739D4F3B1076260000762F00009A0AFF6976739D57D3
:209C200076739D7676739D957622761F01C056BF021A56BF021B1A1C00081A1C00101A1C02
:209C300001001A1C04001A1C08001A1C0020181CBFFF181C7FFF1A1D01001A1D02001A1DF9
:209C400004001A1D08001A1D00011A1D00021A1D00041A1D00081A1D00101A1D00201A1D01
:209C500040001A1D80001A1C0004761F01BECC06FFFC50019606CC06FFF350049606CC062F
:209C6000FFCF50109606CC06FF3F50409606CC06FCFF1AA901009606CC06F3FF1AA9040026
:209C70009606CC06CFFF1AA910009606CC063FFF1AA940009606CC07FFFC50019607CC07EB
:209C8000FFF350049607CC07FFCF50109607CC07FF3F50409607CC07FCFF1AA901009607D6
:209C9000CC07F3FF1AA9040096071807CFFF180ABFFF18073FFF180A7FFF1808FFFC180B83
:209CA000FFFE1808FFF3180BFFFD1808FFCF180BFFFB1808FF3F180BFFF7CC09FFFC5002D2
:209CB0009609180BFEFFCC09FFF350089609180BFDFFCC09FFCF50209609180BFBFF180908
:209CC000FF3F1A0B0800CC09FCFF1AA901009609CC09F3FF1AA9040096091809CFFF180BA7
:209CD000BFFF18093FFF1A0B8000761F01BF1A038000761F01BE1816FFFC181AFFFE1816E6
:209CE000FFF3181AFFFD1816FFCF1A1A0004761F01BF1A0A0004761F01BE1816FF3F181AA1
:209CF000FFF71816FCFF181AFFEF1816CFFF1A1A0040761F01BF1A0A0040761F01BE18166A
:209D00003FFF1A1A0080761F01BF1A0A0080761F01BE1818FFFC181BFFFE1818FFF3181B54
:209D1000FFFDCC18FFCF50109618181BFFFBCC18FF3F50409618181BFFF7CC18F3FF1AA928
:209D200004009618181BFFDF1819FFCF181BFBFF1819FF3F181BF7FF1819FCFF181BEFFF4F
:209D30001819F3FF181BDFFF1819CFFF181BBFFF18193FFF181B7FFF1828FCFF182BFFEF63
:209D40001828F3FF182BFFDF1828CFFF182BFFBF18283FFF182BFF7F761AFF6900067622CC
:209D5000761F01C056BF6829761AFF690006FE029641761F01C04311EF0276259221900F9A
:209D60005441EC1276221A1100409241CD21FFF0900FCAA89621761AFF6976739D4F762270
:209D70001811FFBF761AFE82FF6900063B10761F00331820FFFE2B222B242B262B282B2A91
:209D80002B2C2B2E2B302B322B342B362B382B232B252B272B292B2B2B2D2B2F2B312B3332
:209D90002B352B372B39FF690006FE068F33AA79A8448F000D00A84676222B419241528017
:209DA000630C8A468344A8A909021E4606C51EC40A419241528064F6761A761F00331A2054
:209DB0000001FF69FE860006FE04A044A842C44206440FA6690D8A429284A8428A48C4A44F
:209DC000DE01C24896C4C44206440FA666F5FE840006D500A0BDA0BDA0BDA0BDA0BDA0BD55
:209DD000804FF3A72902565E565E630256588AA9A9A5A3520650630256581E4AA94C0FA475
:209DE0006003A9A90FA5610F6613064A6113A0ABA8A976739E9A0642A3444FA76C0256584F
:209DF000FE8C000628AB00012BAA02006FF756336FF80200A8ABF61F5617004CA9A4A0AB07
:209E0000F61F5617004CA8A96FE9D500A0BDA0BDA0BDA0BDA0BDA0BD80A82902565E565E0D
:209E1000630256588AA9A9A5A3520650630256581E4AA94C0FA46003A9A90FA56112660EE0
:209E2000064A6112A0ABA8A976739E9A0646A3484FA76C025658FE8C0006A8A9A0AB6FF9C5
:209E30005633FE8C00060200A8ABF61F5617004CA0ABF61F5617004CFF5A02006FEAD50034
:209E4000A0BDA0BDA0BDA0BDA0BDA0BD8AA9A9A50F506003A9A90F52610F68130650611329
:209E500006501E4A06521E4CA8A976739E9A0642A344FE8C000628AB00012BAA02006FFA2D
:209E600056336FF80200A8ABF61F56170052A9A4A0ABF61F56170052A8A96FECD500A0BD7F
:209E7000A0BDA0BDA0BDA0BDA0BD8AA9A9A50F506003A9A90F526111680E06506110065006
:209E80001E4A06521E4CA8A976739E9A0646A348FE8C0006A8A96FFD56336FFB0200A8AB5A
:209E9000F61F56170052A0ABF61F56170052FF5A02006FEFD03F565E565E640E56355652EA
:209EA00021A55635565222A893A09FAC9FA597A02AA856A0D88156A08AA9A9A5064AFF53AC
:209EB0001E4AFF5A0648FF531E480F4C6003A9A90F4E680A0648565D004E5654004C1E4841
:209EC000A94A3B086F03064829080646FF531E460644FF531E44A8A9A0AB0008FFDE0006D4
:209ED000B2BDA0A98BA58346EC6F76B39F48761F031192CD80C5C230EC105262BE01EC05B7
:209EE00093D5536256B000A6522B28AA0001EC0792D5522BEC046F02BE002BAA9A0093AAA7
:209EF000ED0F93A75372ED039B106F085377EC035361ED039B206F029B0027A86F022BAB0B
:209F000093A7536156B180A556B000A593ABCBA527A893A6EC048F4001006F02D50093AB82
:209F1000CBA5D00A27A893AA56B040A556B100A593ABCBA5979193A6EC0328A9800093A7BB
:209F20005361EC135372EC045377EC066F1693AAEC1450026F1293AAEC039B026F029B0192
:209F3000CAA81AA906006F0993AAEC039B026F029B01CAA81AA9020828A801B6767396F74C
:209F4000520096C16303D4006F028AA18BBE0006B2BDAABD8D80C3408AA27673A568761F96
:209F5000030C92005202640FD101DA0C92C264048AA27673A568D901761F030C92A1DA0C5C
:209F6000540064F586BE8BBE0006B2BDAABDA2BDFE02761F030BC53E864C8BA582A43E67F9
:209F70008AA27673A568B2428AA383A276739ED0761F030BC53C86A43E678AA2FE8282BEB3
:209F800086BE8BBE0006761F03119235ED0B8F00C36456BF0135BE0628C4FFFFDC0C000E21
:209F9000FFFD8F00C3402BAC6F0492AC9C012DA992AC761F030C54006308350C83A45601C8
:209FA00000A51BC5FFFFEDF292AC520AED0302006F0C310CA8A907AB8AA992AC5400ED0244
:209FB0000A00A8A9F60B2B848AA90006AABDA2BDFE02761F030BC53E82A586A43E67767302
:209FC0009F8383A4A2428AA276739ED0761F030BC53C86A43E67FE828AA282BE86BE000628
:209FD000761BFFF00005ABBDA8BDA0BDC2BDC3BDE20000BDE20300BDE20301BDE20302BD3B
:209FE000E20303BDE6300600FE12FF69294256162B51761F01C11A1B0040761F00332821F8
:209FF0000100761F01C14F1BEE166F0E58515CAD9217DC90969458515CADDC9092947673F0
:20A00000918D0A512B51761F01C1CC1B1F00FFC7EDEE6F071A1B4000181BDFFF1A1B2000FC
:20A01000FE92E2AF03BEE2AF02BEE2AF01BEE2AF00BEE28000BEC5BEC4BE83BE8ABE87BE6B
:20A020000003FFF176177602761BFFF00005ABBDA8BDA0BDC2BDC3BDE20000BDE20300BD39
:20A03000E20301BDE20302BDE20303BDE6300600FE12FF69294256162B51761F01DD1A3B75
:20A040000040761F003356BF8021761F01DD4F3BEE166F0E58515CAD9237DC90969458510A
:20A050005CADDC909294767391AA0A512B51761F01DDCC3B1F00FFC7EDEE6F071A3B400015
:20A06000183BDFFF1A3B2000FE92E2AF03BEE2AF02BEE2AF01BEE2AF00BEE28000BEC5BEC5
:20A07000C4BE83BE8ABE87BE0003FFF176177602761BFFF00005A8BDE20000BDE6300600E3
:20A0800029425616761F01DD1A1B0040761F003328210100761F01DD4F1BEE198F00C2E8D2
:20A090006F0F761F030B5827761F01DD92179694761F030B0A279227521468022B27761F86
:20A0A00001DDCC1B1F00FFC7EDED6F071A1B4000181BDFFF1A1B2000E28000BE8ABE000360
:20A0B000FFF176177602B2BDAABDA2BDE20304BDFE06761F030BC53E86A582A43E678AA2F4
:20A0C0007673A5035200ED05761F030BC53C6F7092F29EE28AA396427673AAA7D00A1E44A9
:20A0D0001E46929290075204EC4F0644EC6E2B413B01C446D00A854280920FA668035946F8
:20A0E0006F025942CCA700075202ED1685A1D50A8AA3BDA90F227673AA2BA8A9EC0DD50AD3
:20A0F000BFA90F228AA37673AA2B92A4284100019EA39C0159A93B018AE283A385A176736F
:20A10000A8D53B0185A1C446560100E285A1560100A385A1564100A69242C2469EA19642A7
:20A11000EC039241EC0E8AA27673A4285200ED1A92F28AA29B009EE21E42DC0A1AC400202A
:20A120000646EDB76F220646EC20D1003B018AA385A1560100A4934692C27673961A5200D3
:20A13000630B761F030BDA0AC53C1AC204003E6728A9FFFF6F0F3B0185A972A1C446564129
:20A1400000A6C2460646EDE3761F030BC53C3E679244FE86E2AF04BE82BE86BE8BBE00066C
:20A15000B2BD8D40C34CAABD83A17673A0B38F33B1585AA983A17673A0B393A992A294A803
:20A1600086BE8BBE0006B2BDAABDA2BDFE0206A6FFE100845FDCA3C406D4FF90FFD4974151
:20A1700006D456AA1AA8800056911BA70000630256588EA9A9A11B410000600456A26172EB
:20A180006F7D1B4107FF61745FDDA3C506D5FF90FFD4974206D556AA1AA8800056911BA71C
:20A1900000006302565886A9A9A31B420000600456A2615B6F631B4207FF615A93419F4207
:20A1A000630AB2AB8BA3A9A33AAB8EA2A9A25D427D41FF5D2DA83AA9B2AB1BAC0036630FBE
:20A1B0001BAC00006108AAA9A2AB562C86A9A9A3B2AB3AA9565700A3564000A2565E565E92
:20A1C000612A97A7565E565E630256585C415635565221A35635565222A893A49FAC9FA3E6
:20A1D00097A42AA88DC00200565700A3D300564000A3630418A87FFF0AA45699910F0AA427
:20A1E000651D1BA407FF631418A7800099A793A4FF93CBA7A9C61ED6FE8282BE86BE8BBE37
:20A1F000000606D5A3C56FF706D4A3C46FF45633CDA780001AA87FF06FEE56336FEC00000D
:20A20000B2BD76C0C90027A8D000BE0797C796CF40A0EE0A92A0FFC02FA906A70DAA8BA970
:20A21000C68496D16F0F92A0FFC02FA906A70DAA8BA9CCA000019384FF8291FF2DA9FF67CD
:20A2200099D1D801000EFFE692ABEC289CFF2BAB88A940ABEE0D28AA000892AB94AAFFC0FB
:20A230002FA906A70DAA8AA9C68596D46F1228AA000892AB94AAFFC02FA906A70DAA8AA9E6
:20A2400092AB9385900191FFFF822DA9FF6799D492AB9C0127A9000EFFDE77007700770064
:20A2500077008BBEFF690006B2BDC5A4D000BE07D1008F00C900AABD27C4B50F00A692A13B
:20A26000FFC02FA9A8A9D9010DAA86A9CCA0000F2DA993CAD808FF6391FF9787A0A9EC1C47
:20A2700092ABEC1A9CFF88A9D0002BABB51300A6B60892AB94A7FFC080A9A8A90DA71EA7C3
:20A28000CCA0000F2DA993CF92ABD8089C01FF6391FF27A9978586BE8BBE0006B2BDAABD0A
:20A29000A2BDE20304BDE20305BDFE02BDA50F22761F030BBDA40F26594FC53E82A93E67BB
:20A2A000BFA20F261BC2FFFFE2030442EC4192A15204EC03A2A9EC3C8AD2A8A9EC16D00A61
:20A2B000939243A8EF06DC8176739A42D00A93923100D400B600BE00D00818A8FFF7A9E2D6
:20A2C000A8D2C3F2C2926F03D00A939292A1D00A56B101A1BE0118A8FFF8CBA1979206A61D
:20A2D0000FA3ED0302001E42FF2001000FA367038DC001000642ED18DB01A2A976739AAB3E
:20A2E000A8A9ED0D8AA21ED2DC0A1AC40400761F030BC53C3E6728A9FFFF6F248AA2DC0A72
:20A2F0001AC400086F0206420901761F030BFF5AD0081ED2565700A3A9A4C53C1EE21E9293
:20A30000DC81A8F23E67761F030BC53E3E67761F030B8F339F48C53C761F0311A8303E67E3
:20A310009A00FE82E2AF05BEE2AF04BE82BE86BE8BBE0006B2BDAABDA2BDFE0206A66179DE
:20A320005FDD93DCF3A7A3C406D4FF90FFD4974106D456AA1AA8800056998EA9A9A11B4175
:20A33000000061721B4107FF6169A3C506D5FF90FFD4974206D556AA1AA88000569986A955
:20A34000A9A31B420000615A1B4207FF615D93419F4297A402001ED61EC628A500353AA9C9
:20A35000B2AB2B410FA26003A9A90FA3680BB2A9565500A38BA93AA9565400A28EA92841ED
:20A36000000106D6A3C656A01ED6A9A994411EC63AA9B2AB56A08EA9A9A16103000DFFE398
:20A370000AA560020AA508A500092DA506D6A3C65652640356A00BA456908DC002005657AA
:20A3800000A3D300564000A3630418A87FFF0AA45699910F08A403FF65171BA407FF630ECC
:20A3900018A7800099A793A4FF93CBA7A9C61ED6FE8282BE86BE8BBE00065633CDA78000C0
:20A3A0001AA87FF06FF456336FF2B2BDAABDA2BDFE0206A661715FDD93DCF3A7A3C406D4E6
:20A3B000FF90FFD4974106D456AA1AA880008EA9A9A11B410000616B1B4107FF6162A3C501
:20A3C00006D5FF90FFD4974206D556AA1AA8800086A9A9A31B420000615A1B4207FF6151A2
:20A3D0009341954297A45633A2AC564700A1A9A9560500A0565300ABB2AC560500A25653CD
:20A3E00000AB562800A99B00565CB2AC564700A2565300AB3AAC564700A3565300AB560578
:20A3F00000A2565300AB1EC6562800A99B00564700A2565300AB1ED6A3C6630356900AA4C7
:20A400008DC00200565700A3D300564000A3630418A87FFF0AA45699910F08A4FC0165178A
:20A410001BA407FF630E18A7800099A793A4FF93CBA7A9C61ED6FE8282BE86BE8BBE000686
:20A420005633CDA780001AA87FF06FF456336FF2B2BD8BA488C11BA6FFFFEC1AD00A5D91AD
:20A43000B60045A5EF0FA3D1A9A9EC0C93E15CAB9FA4EC0892A6A9A47673961AD00A80A9DD
:20A440005D9192A76308D00A1AA504007D9128A9FFFF6F0C06D1D00846A51EE11E91EF0539
:20A45000D00A18A5FFCF7D919A008BBE0006B2BDAABDA2BDFE02A8A98BA4ED2B761F030B20
:20A46000C53E3E67761F030C2B419200651D8D80C340D1001BC2FFFFEC10761F030BC53EB2
:20A470003E678AA27673A428761F030B5BA9C53C3E679241CAA39641D901761F030C92A131
:20A48000DA0C540064E8761F030BC53C3E676F0E761F030BC53E3E678AA17673A428761FB0
:20A49000030B59A9C53C3E6779419241FE8282BE86BE8BBE0006B2BDFE02E8021589E80B2C
:20A4A00090C1E6940008AD146508761F0311E803FC0056BF02346F55E5A0AD14630BE8015F
:20A4B000FDC1E80D51D9E70000097700E8AFC0096F0BE801FDC1E80D51D9E7000009770041
:20A4C000E88FC0097700E68C000977007700BFA10F163B0185A1BDA90F1677007700E80113
:20A4D000F98BE805CAF2E6890009E80C0003E700005BE80C041AE75180517700E7200040B5
:20A4E000E801DC43E7000002E80A9843E70000997700E88FA00BE801EA61E80DFAD9E700A2
:20A4F0000089E70000C0E88FC0097700E72000097673A9D59A01E88FC00094A17673A80353
:20A50000FE828BBE0006B2BDFE028BA41BC1FFFFEC09D00A889144A6EF07D00A1AA604008E
:20A510007E919A006F2847A6EF07D50202007673A6FBD00A889145A6B600EE0846A6EF063A
:20A5200093A6D00A512088A8979106D1ED0D42A6EE0B92A69007D5008AA19641FF200100C7
:20A530007673A28E80A99A00C4F1D00893A756B101A9C291FE828BBE0006FE021BC4FFFFB8
:20A54000EC09D00A889445A6EF07D00A1AA604007E949A006F1C44A6B600EE0846A6EF06E3
:20A5500093A6D00A511088A8979406D4ED0C42A6EE0A92A69007D5009641FF2001007673E5
:20A56000A28E80A99A0093A756B101A9FE820006B2BDAABDA2BDFE0286A45BC2D00ACC92C3
:20A5700010001BA3FFFF9641EC057673A4285200EC0428A9FFFF6F2CD00A4392EF098AD2D3
:20A58000DC8176739A428AA2DC0A18C4FFF70200B600BE001EF292C2C3D2C2E2767397839F
:20A5900059A928C2FFFF9241EC12761F030BC53E3E673B018F00C3C0560304A3560100A45C
:20A5A0007673AAB4761F030BC53C3E6792A1FE8282BE86BE8BBE0006761F030BB2BDC53E70
:20A5B000AABD86A43E67761F030BC53E3E678AA27673A568761F030B59A9C53C3E67761F08
:20A5C000030BC53C3E6792A186BE8BBE0006B2BDAABDFE02761F030BC53E59A986A43E67B4
:20A5D0008AA27673A5035200ED05761F030BC53C6F31D00A929290075204EC1CC4E206F295
:20A5E0000FA666078AA27673A4285200ED1DC4E206A68AA6D00A09011EE279C44192EF1E79
:20A5F00092A1520AED1B8AA27673A4285200EC166F0B5CAD92C279419B01DC817673961A5C
:20A600001BA9FFFFED0B761F030BDA0AC53C1AC204003E6728A9FFFF6F06761F030BC53C8B
:20A610003E6792A1FE8286BE8BBE00068F00C34C7673A5C70006E20304BDE6950003E695A7
:20A62000000CE69D0723E6930022E585E00880BDE00689BDE8D00000E850A009E700001279
:20A63000E68E0009E700011076FFF0E6E8D0000076BFF0E4BFA90F168CA9000658ABE700D7
:20A6400000128F7FF0E2E7000098E2AF0197E300599676FFF0DEE3165C95E2AE01D7E70012
:20A6500000C37700E31702BEE6AE000BE6C10010E6A30000E6AA0000E6A4001BE312DABE55
:20A66000E2AE04BEE6CB000BE71000C07700E6A4000000068F73A67AA0C4DC0A2BD48F40D4
:20A67000C5C8A0E492F496DC00063B0183A4C584DD0A762085C5C4C4AEC656C5003776B3D1
:20A68000A683C28C000685C5C4C4AEC656C3002E76B3A68CC28C00060AD585D5AECDED253B
:20A690002BD585DDEC1A0BDDDD04C4C5DE01C2C5DE8128A000C8C58492C777B696BBC58432
:20A6A00092C777B696BBC58492C777B696BBC58492C777B696BB00067680C5C8C2E576B32A
:20A6B000A67AC28C92F596DD000628AD0050FF69561F5616561AE61002002940761F000048
:20A6C0002902761B762228A9AAB728A800330901611B76F3AAB729046F0F9B0024A9DF01AE
:20A6D0006C04290424A8DF011EA6F7A1248606A781A109011EA724A96303FF5C3B0459A9AE
:20A6E000DF010009FFEC761A28A9FFFF28A8FFFF0901610E76FFFFFF6F06DF01C3BD1EA7D3
:20A6F0003E67C5BE24A9DF0124A8FF5860F77673A9A37673A9BE761F030BB2BDC53EAABDFA
:20A7000059A586A4A2BD82A93E671BC2FFFFEC2192A15201ED0DD00A4492EF0A06E2EC08F5
:20A71000D008C492564100A6A2A903A682A98AA27673A42883A25CC2A2A9DD0A18C5F5FF78
:20A720005DA17673976B1EA6020019010FA6ED08761F030BC53C3E6728A9FFFF6F06761F84
:20A73000030BC53C3E679A0082BE86BE8BBE0006E8021511E80FCC19E7000040E801E24AC0
:20A74000E8087EDAE688000176BFEBDC76FFECDCBFA90F1618A901FFFF8058A9E6F1000064
:20A75000E801F153E80D555BE3041196E302D897E86FC000E70000D37700E71000C07700BF
:20A76000E30099967700E720005B7700E30698977700E71000C00006E8021511E80FCC193F
:20A77000E7000040E801E24AE8087EDAE688000176BFECDC76FFEBDCBFA90F1618A901FF4F
:20A78000FF8058A9E6F10000E801F153E80D555BE3041196E302D897E86FC000E70000D3DD
:20A790007700E72000C07700E30099967700E71000CB7700E30698977700E71000C00006E6
:20A7A0007673A5C700067673A0B30006B2BDFE08761F030B064EC53E1E483E67761F030DDD
:20A7B0007680C34C1B0CFFFFED08761F030BC53C3E6728A9FFFF6F14C24276F3A7A05CAD12
:20A7C0005DAD76B3A7A3C344DC88DD8EC246767388A6761F030B59A9C53C3E6792A1FE8803
:20A7D0008BBE00068F73AFE22BAC3B016F09350ADC0194A79CD080C42DA96F16DC0180C479
:20A7E0009A01C4A594A785A9560100A643C6EEF792A7522DEC05522B2BABED066F0328ABCD
:20A7F0000001DC0180C49A013B01C4A594A785A9560100A642C6EEDC92ABEC0492ACFF5CE9
:20A800002DA992AC0006FE045200E2030044EC2BE5A0AD1461283B0185A91EA69243FFA613
:20A8100090FF80A906A681A71EA6651802FE0FA6630EE5A0761F0311AD1456BF0234640493
:20A82000E803FC006F0CE807FC006F0992A61843807F560307A998436F04E590E2030044CC
:20A83000E2AF0044FE840006B2BDFE16BE00FF585DAD8EA93B0156B401A6DD832BC5020A89
:20A840001E423AA900F3A899B60A85A9FF569C30968DC3423AA900F3A88A8EA9EDF192A6F5
:20A85000EC0356BF2D8D59ADD9960EA103A58BA909147673A8D592A1FE969C138BBE0006E2
:20A8600006D428A700010FD556B202A756B400A7600806C40FC556B602A756B800A76119FE
:20A8700006D4FF901BA8FFE0680C06D5FF901BA8FFE0680706D4FFDE92DDFFCE9EA800068F
:20A880000BA73B0185DC92A7CFDD6302FF5C00069A00000629022904565FFF5A0642565FBB
:20A890001E420200F61F5617004206AB56322902762029022904565FFF5A0642FF561E4225
:20A8A0000200F61F56170042563229027620FF5A0200F61F56170042A9A97620FF5A020027
:20A8B000F61F5617004276205EDCA3C406D4FF90FFD497A506D456AA1AA8800008A5FC014F
:20A8C00064139A0F9EA565092DA9FF6392A81BA600006302FF5C000628A97FFF93A663FCC7
:20A8D00028A980006FF99A006FF7FF5A92AB8EA4C5A4EC079CFF88A992859687000EFFFE80
:20A8E00092AB88A9A9A90FA6EC1093AAEC0EA9A99DFF5CA876BFFFFE92859687000EFFFE4D
:20A8F00092859687000CFFF88AA000065EDCA3C406D4FF90FFD497A506D456AA1AA88000AC
:20A9000008A5FC0164112FA89B1F9FA565092DA893AA56221BA600006302FF540006560274
:20A9100000A6FF576FFC02006FFA28ACFFFF0F426009A9A90F4456B100AC56B601AC92AC7A
:20A92000762056B100AC56B201AC92AC762028ACFFFF0F426003A9A90F4456B100AC56B65B
:20A9300001AC92AC7620FF581EA6EC1BC5A68EA4DF8192C59680EC080200DF81DE81DD0167
:20A9400019010FA7EDF783A6C5A602010FA7DD816708DD810200DD812B8019010FA5EDFB0A
:20A95000000606A66112BFA90F1297A53100569691FF611253FF610A08A8038056A318A537
:20A960008000CBA5A9C61ED600065633CDA580001AA87FF06FF856336FF6FF5A06A6611700
:20A97000A9A9611697A58F00041D63066B012902FF546A020AA4F61FFF743100569D93A4C2
:20A9800056A318A58000CBA5A9C61ED6000656336FFCFE02E8125800AD146208E8165800E1
:20A99000AD146404E5A0AD146005E20300C4E5906F09E68800017700E68900097700E02266
:20A9A00001C4FE82000628ABFFFF28AAFFFF28A9FFFF28A8FFFF0FABED04BE00D4006F0959
:20A9B00028ABFFFF28AAFFFFA9A488C409028AA992A6767389A9000677006F00761F030B2D
:20A9C000B2BDC53E59A93E67761F03110632EC041EA792A13E67761F03110630EC031EA75D
:20A9D0003E677673A9BC8BBE0006E693000AE5A0E70000537700E8D0001B7700E70000D269
:20A9E0007700E7000053E5A1E8D0001BE6A10000E70000D27700E70000800006C141C04225
:20A9F0000644CFAACEABFF5A06427620994198420644CBAACAABFF5A06427620F341F2424D
:20AA0000064471AA70ABFF5A06427620761D1EBD874456050048A9A4564700488742A9A956
:20AA10005665004807AB87465665004407ABA8ABFE847620761BFFF0E20000BDE63006004D
:20AA200029425616761F003356BF8021E28000BEFFF176177602FF5888A5EC0C190183A9EA
:20AA300092A654C4EC080200DD81DC0119010FA5EDF8D4000006FE0406D51E4206C51E448E
:20AA40001C4180005DADDD845DA57673A163FE8400065300650A9DFF88A893C554A897843A
:20AA5000EC05DD01000EFFFBD4000006FF58C5A4EC0919011EA60200DE817D8719010FA66E
:20AA6000EDFB000693C454A8EC095300ED03D4000006DC0193C454A8EDF9000697A69B008F
:20AA7000F60F1FA6762097A69B00F60F1FA692A87620761BFFF0E20000BDE630060029424E
:20AA8000561676256F0093C492A89EC55300EC055200DD01DC01ECF80006761F030BA83C8A
:20AA90000006761F030BA83E0006000606D4A3C4565E61031CA880001ED6A9C60006561F90
:20AAA0007622B9C028290068761A0073A6B5020019011EA79284DF01EDFE06A70006C4A491
:0EAAB00092859686EDFE00067673968100066E
:20AAB700FFFFC00100000000FFFFC00200000258FFFFC00300000258FFFFC00400000000C9
:20AAC700FFFFC00500000000FFFFC00600000000FFFFC00700000BB8FFFFC0080000012C6D
:20AAD700FFFFC00900000000FFFFC00A00000001FFFFC00B00000000FFFFC00C000009C46F
:20AAE700FFFFC00D00000320FFFFC00E00000000FFFFC01200000000FFFFC01300000000F4
:20AAF700FFFFC01400000000FFFFC0150000000AFFFFC01600000001FFFFC01700000000E6
:20AB0700FFFFC01800000000FFFFC01A00000000FFFFC01B00000000FFFFC01C00000000CD
:20AB1700FFFEC022000000000000FFFEC0240000999A3E19FFFEC026000000000000FFFEF4
:20AB2700C028000000000000FFFEC02A000000000000FFFEC02E0000CCCD3D4CFFFEC03045
:20AB3700000001A83B03FFFEC032000000000000FFFEC0340000B71838D1FFFEC03600006C
:20AB470000000000FFFEC038000000000000FFFEC03A00007CEE3F7FFFFEC03C00000000E1
:20AB57000000FFFEC03E000000000000FFFCC04000000BB800000BB80000FFFAC044000065
:20AB67006B0000006B0000006B400000FFFAC04A000003E801F40000468000004680FFF9E6
:20AB7700C050000000EE00A0000D00FF00FC00FF00FFFFF6C058000003E803E800C800006F
:20AB8700000046800000468000004680FFF6C062000000EE000900DE00ED0013003100FF40
:20AB970000FC00FF00FFFFF6C06C0000000000000000000000000000000000000000000083
:20ABA700FFF6C076000003E803E800C80000000046800000468000004680FFF4C080000040
:20ABB70000000000000000000000000000003F800000000000003F80FFF4C08C0000CCCD28
:20ABC7003D4CC28F3CF5999A3E19CCCD3DCCCCCD3D4CCCCD3D4CFFF4C0980000D70A3CA3E8
:20ABD700CCCD3E4C999A3E9900003E80C28F3D75C28F3DF5FFF2C0A4000000000000000098
:20ABE70000000000000000000000000000000000000000000000FFF2C0B2000000000000EB
:20ABF700000000000000000000000000000000000000000000000000FFF2C0C000006A0063
:20AC070000006A0000006A2000006A4000006A6000006A8000006AA00000FFF2C0CE000052
:20AC17006800000068000000684000006880000068C000006900000069400000FFF2C0DCF6
:20AC2700000000000000000000000000000000000000000000000000000000000000FFF11D
:20AC3700C0EA000000EE00B100320000000200000001000000000002000F00FF00FC00FF74
